S00D000054696D65722E7372656316
S11300000C942A000C9449000C9447000C9447006B
S11300100C94CA000C9447000C9447000C944700BD
S11300200C9447000C9447000C9447000C94470030
S11300300C9447000C9447000C9447000C94470020
S11300400C9447000C9447000C9447000C94470010
S11300500C94470011241FBECFE5D8E0DEBFCDBF0E
S113006010E0A0E6B0E0ECE7F6E002C005900D92E7
S1130070A036B107D9F720E0A0E6B0E001C01D9298
S1130080AB36B207E1F70E9453000C943C030C9486
S113009000001F920F920FB60F9211240F900FBE03
S11300A00F901F90189561E081E00E9462018FB764
S11300B080688FBFFFCF81E080936300089581E063
S11300C080936200089581E080936100089581E047
S11300D0809360000895109263001092650010925E
S11300E064001092660008951092620008951092C0
S11300F06100089510926000089540916700509146
S113010068004F5F5F4F50936800409367009A0107
S113011036952795ABE7B4E10E942D039695879514
S113012062E3689F9001699F300D112442175307C1
S113013011F00E94F400909166008BEA989F812D43
S113014011248695282F220F820F981729F0809169
S1130150600081110E94EE0080916300882349F0C1
S1130160809164009091650001969093650080935E
S11301706400809164009091650080369A4E48F046
S11301801092650010926400809166008F5F8093E6
S1130190660008951F920F920FB60F9211242F93A9
S11301A03F934F935F936F937F938F939F93AF93FB
S11301B0BF93EF93FF930E947D00FF91EF91BF9156
S11301C0AF919F918F917F916F915F914F913F91EB
S11301D02F910F900FBE0F901F90189581E0809380
S11301E069000895089508950F931F93CF93809104
S11301F06A00813069F038F0823009F456C08330E7
S113020009F458C05BC00E9477000E94740056C075
S11302100E945F000E9463000E94F2008C01C82FBC
S11302200E94F300282F801778F4A8015527481B53
S113023051094630510544F482E080936A000E94DB
S11302406B000E947A0029C0C21778F4AC015527CC
S1130250401B51094630510544F482E080936A0002
S11302600E946B000E947A0018C02C1758F4A80151
S11302705527481B51094B30510524F083E08093E6
S11302806A000BC0C21748F49927801B910906978E
S113029024F00E945B000E9467008091690088231B
S11302A069F083E080936A0009C00E945F000E94A5
S11302B0770004C00E9474000E947700CF911F91C0
S11302C00F910895CF93C82F823018F00E94EE004A
S11302D02BC070E080E090E00E94340221E030E026
S11302E04AE751E40E94C00220E030E040E85FE3C6
S11302F00E9496010E9403026F3F710521F018F0DD
S11303000E94EE0011C0C11107C06CBF8DE083BF15
S113031089B7826089BF08C0C13031F463BD8DE004
S113032085BD89B7806889BFCF9108955058BB2790
S1130330AA270E94AE010C9486020E94780238F02B
S11303400E947F0220F039F49F3F19F426F40C94A4
S113035075020EF4E095E7FB0C946F02E92F0E94FE
S1130360970258F3BA17620773078407950720F0BA
S113037079F4A6F50C94B9020EF4E0950B2EBA2F7D
S1130380A02D0B01B90190010C01CA01A001112497
S1130390FF27591B99F0593F50F4503E68F11A1643
S11303A0F040A22F232F342F4427585FF3CF4695D4
S11303B037952795A795F0405395C9F77EF41F16F6
S11303C0BA0B620B730B840BBAF09150A1F0FF0FC0
S11303D0BB1F661F771F881FC2F70EC0BA0F621FAC
S11303E0731F841F48F4879577956795B795F7959C
S11303F09E3F08F0B0CF9395880F08F09927EE0F31
S11304009795879508950E949F0288F09F5798F0CA
S1130410B92F9927B751B0F0E1F0660F771F881F05
S1130420991F1AF0BA95C9F714C0B13091F00E941F
S1130430B902B1E008950C94B902672F782F882788
S1130440B85F39F0B93FCCF3869577956795B39546
S1130450D9F73EF490958095709561957F4F8F4FB5
S11304609F4F0895E89409C097FB3EF490958095BA
S1130470709561957F4F8F4F9F4F9923A9F0F92F66
S113048096E9BB279395F695879577956795B795E4
S1130490F111F8CFFAF4BB0F11F460FF1BC06F5FCA
S11304A07F4F8F4F9F4F16C0882311F096E911C0DC
S11304B0772321F09EE8872F762F05C0662371F0FD
S11304C096E8862F70E060E02AF09A95660F771F11
S11304D0881FDAF7880F9695879597F9089597F905
S11304E09F6780E870E060E008959FEF80EC0895D6
S11304F000240A94161617061806090608950024FF
S11305000A9412161306140605060895092E039478
S1130510000C11F4882352F0BB0F40F4BF2B11F4EC
S113052060FF04C06F5F7F4F8F4F9F4F089557FD4B
S11305309058440F551F59F05F3F71F04795880F4D
S113054097FB991F61F09F3F79F0879508951216E4
S113055013061406551FF2CF4695F1DF08C0161690
S113056017061806991FF1CF869571056105089441
S11305700895E894BB2766277727CB0197F9089558
S11305800E94D3020C9486020E94780238F00E94E2
S11305907F0220F0952311F00C946F020C947502E5
S11305A011240C94BA020E94970270F3959FC1F330
S11305B0950F50E0551F629FF001729FBB27F00D0D
S11305C0B11D639FAA27F00DB11DAA1F649F662762
S11305D0B00DA11D661F829F2227B00DA11D621FB1
S11305E0739FB00DA11D621F839FA00D611D221F6B
S11305F0749F3327A00D611D231F849F600D211D4F
S1130600822F762F6A2F11249F5750409AF0F1F0D1
S113061088234AF0EE0FFF1FBB1F661F771F881F3A
S113062091505040A9F79E3F510580F00C946F0201
S11306300C94BA025F3FE4F3983ED4F38695779521
S11306406795B795F795E7959F5FC1F7FE2B880FE0
S1130650911D9695879597F90895A29FB001B39F30
S1130660C001A39F700D811D1124911DB29F700DB7
S10F0670811D1124911D0895F894FFCF02
S9030000FC
