S01700004763634170706C69636174696F6E312E737265635B
S11300000C942A000C943F000C943F000C943F0085
S11300100C943F000C943F000C943F000C943F0060
S11300200C943F000C943F000C943F000C943F0050
S11300300C943F000C943F000C943F000C943F0040
S11300400C943F000C943F000C943F000C943F0030
S11300500C943F0011241FBECFE5D8E0DEBFCDBF16
S113006010E0A0E6B0E0E2E7F3E002C005900D92F4
S1130070A037B107D9F70E9441000C94B7010C9442
S113008000008FEF84BB81BB8ABB0E9481000E9469
S11300907C012FEF82E597E0215080409040E1F70A
S11300A000C0000088B3806188BB82E00E94960093
S11300B080E00E94960088B38F7E88BB8FE99FE022
S11300C00197F1F700C000000E949A00C82F88B37E
S11300D0806188BB81E00E94960080E00E949600C7
S11300E088B38F7E88BB8FE99FE00197F1F700C04A
S11300F000000E949A008BBB682F8C2F0E949E00E8
S1130100D1CF80EB87BB8DB180618DB98DB181601A
S11301108DB98DB182608DB98DB184608DB98DB189
S113012080648DB98DB180688DB908958FB9779B3E
S1130130FECF0895779BFECF8FB10895CF93DF93C1
S1130140CDB7DEB760970FB6F894DEBF0FBECDBF54
S1130150282F80E1E0E6F0E0DE01119601900D9297
S11301608A95E1F76295669566956370222354F447
S11301702195662369F070E08BE490E00E948F0182
S113018081E007C089E1689F602D112480E001C0EF
S113019081E012BA813019F480E485BB12C02436A0
S11301A078F089E2289F812D112482958F70E1E0F7
S11301B0F0E0EC0FFD1FE80FF11D808185BB01C04D
S11301C015BA81E082BB81EE94E00197F1F700C09B
S11301D0000012BA2A30D8F089E2289F812D112418
S11301E082958F70E22F94E6899FE01911249DEC8B
S11301F0E99F812D1124869586958695E1E0F0E0AE
S1130200EC0FFD1FE80FF11D808185BB01C015BAFD
S113021082E082BB81EE94E00197F1F700C0000018
S113022012BA8DEC289F912D11249695969596954A
S1130230990F392F330F330F930F291BE1E0F0E0AF
S1130240EC0FFD1FE20FF11D9081906895BB94E0C7
S113025092BBE1EEF4E03197F1F700C0000012BA6E
S1130260689F812D1124869586958695E1E0F0E0BE
S1130270EC0FFD1FE80FF11D908195BB98E092BB38
S1130280E1EEF4E03197F1F700C0000012BA880FF4
S1130290982F990F990F890F681BE1E0F0E0EC0F9C
S11302A0FD1FE60FF11D808185BB80E182BB81EEDD
S11302B094E00197F1F700C0000012BA83E685BB11
S11302C080E282BBE1EEF4E03197F1F700C0000078
S11302D012BA8D8585BB80E482BB81EE94E00197E0
S11302E0F1F700C0000060960FB6F894DEBF0FBEB1
S11302F0CDBFDF91CF91089588B3806188BB80E83A
S11303000E94960084E00E94960088B38F7E88BB8A
S11303108BE792E90197F1F700C00000089597FB7D
S1130320072E16F4009407D077FD09D00E94A3018C
S113033007FC05D03EF4909581959F4F08957095E4
S113034061957F4F0895AA1BBB1B51E107C0AA1FEB
S1130350BB1FA617B70710F0A61BB70B881F991F62
S11303605A95A9F780959095BC01CD010895F8940C
S1050370FFCFB9
S11303723F065B4F666D7D077F6F777C395E7971CF
S9030000FC
