S00C00006D61696E2E7372656373
S11300000C942A000C9447000C9447000C9447006D
S11300100C9469050C9447000C9447000C94470019
S11300200C9447000C9447000C9447000C94470030
S11300300C9447000C9447000C9447000C94470020
S11300400C9447000C9447000C9447000C94470010
S11300500C94470011241FBECFE5D8E0DEBFCDBF0E
S113006010E0A0E6B0E0EEE5FEE202C005900D92DD
S1130070AE3AB107D9F720E0AEEAB0E001C01D9274
S1130080A13DB207E1F70E9474140C942D170C944F
S11300900000CF93DF93CDB7DEB72E970FB6F89459
S11300A0DEBF0FBECDBF0E942A090E9409080E942C
S11300B06A130E94D61380E090E0A6E1B3E489833A
S11300C09A83AB83BC8320E030E04AE755E469813E
S11300D07A818B819C810E944B16DC01CB018D833C
S11300E09E83AF83B88720E030E040E85FE36D8112
S11300F07E818F8198850E94EE1488232CF481E000
S113010090E09A8789873FC020E03FEF4FE757E4AC
S11301106D817E818F8198850E94461618164CF554
S113012020E030E040E251E469817A818B819C8156
S11301300E944B16DC01CB01BC01CD010E94651568
S1130140DC01CB019A8789870FC080E991E09C8705
S11301508B878B859C850197F1F79C878B87898595
S11301609A8501979A87898789859A85892B69F762
S113017014C06D817E818F8198850E946515DC0194
S1130180CB019A87898789859A859E878D878D85F6
S11301909E850197F1F79E878D8700002E960FB6F6
S11301A0F894DEBF0FBECDBFDF91CF910895CF93FA
S11301B0DF93CDB7DEB7AA970FB6F894DEBF0FBEB4
S11301C0CDBF81E08093AE0085C00E942C0F80914A
S11301D0AE00682F81E00E94B50F80E690E00E9497
S11301E0FF0E80E090E0A4EBB2E489879A87AB87A6
S11301F0BC8720E030E04AE755E469857A858B8541
S11302009C850E944B16DC01CB018D879E87AF87AE
S1130210B88B20E030E040E85FE36D857E858F8514
S113022098890E94EE1488232CF481E090E09A8B44
S1130230898B3FC020E03FEF4FE757E46D857E8513
S11302408F8598890E94461618164CF520E030E0F8
S113025040E251E469857A858B859C850E944B1622
S1130260DC01CB01BC01CD010E946515DC01CB0191
S11302709A8B898B0FC080E991E09C8B8B8B8B8947
S11302809C890197F1F79C8B8B8B89899A890197BB
S11302909A8B898B89899A89892B69F714C06D8512
S11302A07E858F8598890E946515DC01CB019A8B28
S11302B0898B89899A899E8B8D8B8D899E890197DB
S11302C0F1F79E8B8D8B0E942C0F8091AE008F5F77
S11302D08093AE008091AE00803108F476CF80E147
S11302E08093AE0085C00E942C0F8091AE00682FD1
S11302F081E00E94B50F80E690E00E94FF0E80E04E
S113030090E0A4EBB2E489839A83AB83BC8320E0BE
S113031030E04AE755E469817A818B819C810E94AF
S11303204B16DC01CB018F8B988FA98FBA8F20E0FD
S113033030E040E85FE36F89788D898D9A8D0E9463
S1130340EE1488232CF481E090E09C8F8B8F3FC0C7
S113035020E03FEF4FE757E46F89788D898D9A8DC0
S11303600E94461618164CF520E030E040E251E4B5
S113037069817A818B819C810E944B16DC01CB01BF
S1130380BC01CD010E946515DC01CB019C8F8B8FD4
S11303900FC080E991E09E8F8D8F8D8D9E8D01978A
S11303A0F1F79E8F8D8F8B8D9C8D01979C8F8B8FFA
S11303B08B8D9C8D892B69F714C06F89788D898DFD
S11303C09A8D0E946515DC01CB019C8F8B8F8B8DE0
S11303D09C8D98A38F8F8F8D98A10197F1F798A387
S11303E08F8F0E942C0F8091AE0081508093AE00BD
S11303F08091AE00882309F076CF80E090E0A6E1FA
S1130400B3E48D839E83AF83B88720E030E04AE76E
S113041055E46D817E818F8198850E944B16DC01A5
S1130420CB0189A39AA3ABA3BCA320E030E040E8AE
S11304305FE369A17AA18BA19CA10E94EE14882399
S11304402CF481E090E09EA38DA33FC020E03FEF19
S11304504FE757E469A17AA18BA19CA10E9446169B
S113046018164CF520E030E040E251E46D817E81C5
S11304708F8198850E944B16DC01CB01BC01CD0114
S11304800E946515DC01CB019EA38DA30FC080E9FA
S113049091E098A78FA38FA198A50197F1F798A74A
S11304A08FA38DA19EA101979EA38DA38DA19EA133
S11304B0892B69F714C069A17AA18BA19CA10E9420
S11304C06515DC01CB019EA38DA38DA19EA19AA7E6
S11304D089A789A59AA50197F1F79AA789A70E94E8
S11304E02C0F0000AA960FB6F894DEBF0FBECDBF46
S11304F0DF91CF910895CF93DF93CDB7DEB72E97D9
S11305000FB6F894DEBF0FBECDBF80E090E0A0E749
S1130510B1E489839A83AB83BC8320E030E04AE76B
S113052055E469817A818B819C810E944B16DC01A0
S1130530CB018D839E83AF83B88720E030E040E811
S11305405FE36D817E818F8198850E94EE148823FC
S11305502CF481E090E09A8789873FC020E03FEF48
S11305604FE757E46D817E818F8198850E944616FE
S113057018164CF520E030E040E251E469817A81BC
S11305808B819C810E944B16DC01CB01BC01CD0107
S11305900E946515DC01CB019A8789870FC080E929
S11305A091E09C878B878B859C850197F1F79C87CD
S11305B08B8789859A8501979A87898789859A8502
S11305C0892B69F714C06D817E818F8198850E9483
S11305D06515DC01CB019A87898789859A859E8771
S11305E08D878D859E850197F1F79E878D8761E0C4
S11305F081E00E94B50F88E690E00E94FF0E6BE058
S113060081E00E94B50F8FE690E00E94FF0E61E04A
S113061082E00E94B50F84E790E00E94FF0E000084
S11306202E960FB6F894DEBF0FBECDBFDF91CF91EB
S11306300895CF93DF93CDB7DEB79091CE0080912C
S1130640A000890F682F81E00E94B50F32C00E947C
S113065097088093CF008091CF008A32E9F080918F
S1130660CF008332C9F08091CF000E945F0E809149
S1130670CE00882F90E02091CF008D549F4FFC0135
S113068020838091CE008F5F8093CE008091CE0036
S113069081708093CE000DC083EB90E00E94C7165A
S11306A09093B0008093AF0081E08093B600000087
S11306B008C08091CF008A3221F08091CF0083322C
S11306C031F60000DF91CF910895CF93DF93CDB73A
S11306D0DEB72F970FB6F894DEBF0FBECDBF1982D9
S11306E088E390E028E330E0F90120812061FC01F7
S11306F0208382E00E94AD1380E00E94AD1388E362
S113070090E028E330E0F90120812F7EFC01208372
S113071080E090E0A0E8BFE38A839B83AC83BD8341
S113072020E030E04AE755E46A817B818C819D8139
S11307300E944B16DC01CB018E839F83A887B98767
S113074020E030E040E85FE36E817F818885998511
S11307500E94EE1488232CF481E090E09B878A8722
S11307603FC020E03FEF4FE757E46E817F818885EB
S113077099850E94461618164CF520E030E040E2B8
S113078051E46A817B818C819D810E944B16DC013E
S1130790CB01BC01CD010E946515DC01CB019B8717
S11307A08A870FC080E991E09D878C878C859D8521
S11307B00197F1F79D878C878A859B8501979B8795
S11307C08A878A859B85892B69F714C06E817F810E
S11307D0888599850E946515DC01CB019B878A87F2
S11307E08A859B859F878E878E859F850197F1F7E4
S11307F09F878E870E94C413898389812F960FB6A1
S1130800F894DEBF0FBECDBFDF91CF910895CF9393
S1130810DF9300D000D0CDB7DEB719820E94650304
S11308208A838A81882F90E09E012D5F3F4F4AE0A2
S113083050E0B9010E94E5166FE081E00E94B50F17
S1130840CE0103960E94FF0ECE0103960E94C716A6
S11308509093B2008093B10000000F900F900F901E
S11308600F90DF91CF910895CF93DF93CDB7DEB78B
S11308708091B1009091B200DF91CF910895CF9310
S1130880DF93CDB7DEB78091AF009091B000DF91D8
S1130890CF9108950F931F93CF93DF93CDB7DEB716
S11308A00E943F048C010E9434049801281B390BD8
S11308B0C901CC01A0E0B0E0BC01CD010E949415B7
S11308C0DC01CB0120E030E048EC52E4BC01CD0176
S11308D00E94F314DC01CB0120E030E040E251E45B
S11308E0BC01CD010E944B16DC01CB018093C200F8
S11308F09093C300A093C400B093C5008091C2003C
S11309009091C300A091C400B091C500BC01CD0179
S1130910DF91CF911F910F910895CF93DF9300D072
S113092000D0CDB7DEB70E945D100E947710DC01C5
S1130930CB0189839A83AB83BC8389819A81AB8100
S1130940BC81BC01CD010E949C10882F90E0A0E0E6
S1130950B0E0BC01CD010E949415DC01CB01809371
S1130960C6009093C700A093C800B093C9008091BB
S1130970C6009091C700A091C800B091C900BC0105
S1130980CD010F900F900F900F90DF91CF910895AC
S1130990CF93DF93CDB7DEB728970FB6F894DEBFB9
S11309A00FBECDBF0E9479070E944A04DC01CB012F
S11309B089839A83AB83BC830E948D04DC01CB01C1
S11309C08D839E83AF83B88729813A814B815C8173
S11309D08D819E81AF81B885BC01CD010E949A07AB
S11309E0000028960FB6F894DEBF0FBECDBFDF918E
S11309F0CF910895CF93DF93CDB7DEB781E0809395
S1130A00BD000000DF91CF910895CF93DF93CDB760
S1130A10DEB781E08093BE000000DF91CF9108959E
S1130A20CF93DF93CDB7DEB781E08093BF000000A2
S1130A30DF91CF910895CF93DF93CDB7DEB781E0F7
S1130A408093C0000000DF91CF910895CF93DF938E
S1130A50CDB7DEB781E08093C1000000DF91CF9174
S1130A600895CF93DF93CDB7DEB71092BD001092F7
S1130A70BC001092BB001092BA000000DF91CF912D
S1130A800895CF93DF93CDB7DEB71092BE00000078
S1130A90DF91CF910895CF93DF93CDB7DEB7109256
S1130AA0BF000000DF91CF910895CF93DF93CDB7BE
S1130AB0DEB71092C0000000DF91CF910895CF936C
S1130AC0DF93CDB7DEB71092C1000000DF91CF9164
S1130AD008951F920F9200905F000F9211242F939C
S1130AE03F934F935F936F937F938F939F93AF93B2
S1130AF0BF93EF93FF93CF93DF93CDB7DEB70E94FD
S1130B0096050000DF91CF91FF91EF91BF91AF91D6
S1130B109F918F917F916F915F914F913F912F9111
S1130B200F9000925F000F901F901895CF93DF9362
S1130B30CDB7DEB78091B8009091B900019690933B
S1130B40B9008093B8000E944A064091B8005091C1
S1130B50B900CA0196958795969587959695879538
S1130B609C01ABE7B4E10E94B8169695879568ECB2
S1130B70689F9001699F300D1124CA01821B930B59
S1130B80892B61F08091BE00882311F00E94070434
S1130B908091BF00882311F00E94C8044091B800DE
S1130BA05091B900CA0196958795969587959C01B1
S1130BB0A5ECB0E20E94B816929582958F708927B1
S1130BC09F70892764EF71E0869F9001879F300DA5
S1130BD0969F300D1124CA01821B930B892B31F08F
S1130BE08091C100882311F00E948D042091BA00E5
S1130BF08BEA289F812D1124982F9695892F880F91
S1130C00890F922F981B992331F08091C00088237B
S1130C1011F00E943F068091BD00882349F0809125
S1130C20BB009091BC0001969093BC008093BB00E4
S1130C302091BB003091BC0081E090E020364AEE68
S1130C40340710F480E090E060E67AEE869FA0011D
S1130C50879F500D969F500D1124C901841B950B3D
S1130C60892B49F01092BC001092BB008091BA000D
S1130C708F5F8093BA000000DF91CF910895CF93E6
S1130C80DF93CDB7DEB781E08093B7000000DF913A
S1130C90CF910895CF93DF93CDB7DEB78091B500A0
S1130CA0882F90E081309105F9F0823091051CF491
S1130CB0892B49F01AC18230910509F49DC003972C
S1130CC009F4FBC012C10E947B020E9419030E9416
S1130CD04B050E9441058091B600813009F000C1A6
S1130CE081E08093B500FCC061E082E00E94B50F12
S1130CF082E890E00E94FF0E89E890E00E94FF0ED7
S1130D000E9405050E9410050E9426050E94070402
S1130D100E9434049093CB008093CA000E943F0445
S1130D209093CD008093CC002091CA003091CB00E9
S1130D308091CC009091CD0082179307B0F420915C
S1130D40CA003091CB008091CC009091CD00A901D4
S1130D50481B590BCA01069740F482E08093B50002
S1130D600E9431050E9455053EC02091CA00309171
S1130D70CB008091CC009091CD0028173907B0F4B6
S1130D802091CC003091CD008091CA009091CB008D
S1130D90A901481B590BCA01069740F482E08093CD
S1130DA0B5000E9431050E9455051DC02091CC005C
S1130DB03091CD008091CA009091CB0082179307A7
S1130DC090F42091CC003091CD008091CA00909194
S1130DD0CB00A901481B590BCA01069720F00E94B9
S1130DE0FA040E941B058091B700813009F07AC093
S1130DF083E08093B50076C061E082E00E94B50F85
S1130E0082E890E00E94FF0E83E990E00E94FF0ECA
S1130E100E9405050E9426050E944B050E940704B6
S1130E200E9434049093CB008093CA000E943F0434
S1130E309093CD008093CC002091CC003091CD00D4
S1130E408091CA009091CB008217930790F420916F
S1130E50CC003091CD008091CA009091CB00A901C3
S1130E60481B590BCA01069720F081E08093B50016
S1130E701CC02091CA003091CB008091CC0090918D
S1130E80CD008217930788F42091CA003091CB00DB
S1130E908091CC009091CD00A901481B590BCA0147
S1130EA00B9718F083E08093B5008091B7008823F6
S1130EB0D9F083E08093B50017C061E082E00E941E
S1130EC0B50F82E890E00E94FF0E8AE990E00E944C
S1130ED0FF0E0E9441050E944B050E945F0505C05C
S1130EE0000003C0000001C000000000DF91CF91AA
S1130EF00895CF93DF93CDB7DEB783E590E023E584
S1130F0030E0F90120812966FC01208387E390E029
S1130F1027E330E0F90120812860FC0120838AE482
S1130F2090E028EB3BE0FC01318320830000DF915B
S1130F30CF9108950F931F93CF93DF93CDB7DEB76F
S1130F402C970FB6F894DEBF0FBECDBF6D837E83A2
S1130F508F83988729873A874B875C8719821A82FF
S1130F601B821C828D819E81AF81B8859C01AD015D
S1130F70BC01CD010E948214DC01CB0120E030E0F1
S1130F8040E251E4BC01CD010E94F314DC01CB0129
S1130F9029853A854B855C85BC01CD010E944B16A1
S1130FA0DC01CB0120E030E040E251E4BC01CD01A2
S1130FB00E94F314DC01CB0189839A83AB83BC8345
S1130FC00CE510E069817A818B819C810E94651512
S1130FD0DC01CB01F801808300002C960FB6F89455
S1130FE0DEBF0FBECDBFDF91CF911F910F9108954A
S1130FF0CF93DF93CDB7DEB781E490E028E1FC0125
S1131000208381E490E0FC0110820000DF91CF9105
S11310100895CF93DF93CDB7DEB76FE083E40E94EA
S1131020831280E590E020E530E0F90120812B7FF8
S1131030FC0120836FEF83E40E94BC120000DF9167
S1131040CF910895CF93DF9300D000D0CDB7DEB712
S113105019821A821C821B8219825DC085E390E08A
S113106025E330E0F90120812F60FC01208385E332
S113107090E025E330E0F9012081622F2981422F9D
S113108050E021E030E002C0220F331F4A95E2F71E
S113109020952623FC01208384E08A8336C083E3E1
S11310A090E0FC018081282F30E08A81482F50E0B5
S11310B081E090E002C0880F991F4A95E2F78223ED
S11310C093232A81222F30E002C0959587952A9593
S11310D0E2F78C838C818823A9F48981282F30E05E
S11310E08A81882F90E0AC0144505109C901880FCE
S11310F0991F820F931F840F951F8F559F4FFC01DB
S113110080818B838A818F5F8A838A81873038F2DA
S113111089818F5F89838981843008F49FCF8B8193
S11311200F900F900F900F90DF91CF910895CF9370
S1131130DF93CDB7DEB72F970FB6F894DEBF0FBE9F
S1131140CDBF198272C080E090E0A0E2B1E48A834E
S11311509B83AC83BD8320E030E04AE753E46A819B
S11311607B818C819D810E944B16DC01CB018E8397
S11311709F83A887B98720E030E040E85FE36E8171
S11311807F81888599850E94EE1488232CF481E060
S113119090E09B878A873FC020E03FEF4FE757E40A
S11311A06E817F81888599850E94461618164CF5B4
S11311B020E030E040E251E46A817B818C819D81B2
S11311C00E944B16DC01CB01BC01CD010E946515C8
S11311D0DC01CB019B878A870FC089E190E09D8762
S11311E08C878C859D850197F1F79D878C878A85EF
S11311F09B8501979B878A878A859B85892B69F7BD
S113120014C06E817F81888599850E946515DC01F3
S1131210CB019B878A878A859B859F878E878E854E
S11312209F850197F1F79F878E870E942208882364
S113123009F089CF0E942208898389818823D1F308
S113124089812F960FB6F894DEBF0FBECDBFDF9114
S1131250CF9108950F931F93CF93DF93CDB7DEB74C
S1131260C455D1090FB6F894DEBF0FBECDBF80E0E0
S113127090E0A0EAB1E489839A83AB83BC838E01B6
S1131280055B1F4F20E030E04AE753E469817A812F
S11312908B819C810E944B16DC01CB01F801808379
S11312A09183A283B383CE01855B9F4F20E030E01E
S11312B040E85FE3FC0160817181828193810E9437
S11312C0EE1488234CF4CE01815B9F4F21E030E083
S11312D0FC013183208369C0CE01855B9F4F20E0F0
S11312E03FEF4FE757E4FC01608171818281938174
S11312F00E94461618160CF046C020E030E040E28A
S113130051E469817A818B819C810E944B16DC01B6
S1131310CB018E01015B1F4FBC01CD010E946515FD
S1131320DC01CB01F8019183808324C0CE018F5A64
S11313309F4F29E130E0FC0131832083CE018F5A95
S11313409F4FFC01808191810197F1F79E012F5AF3
S11313503F4FF90191838083CE01815B9F4F9E01B2
S1131360215B3F4FF9012081318121503109FC017A
S113137031832083CE01815B9F4FFC018081918169
S1131380892BA1F62CC08E01015B1F4FCE01855B1A
S11313909F4FFC0160817181828193810E94651558
S11313A0DC01CB01F80191838083CE018D5A9F4FDC
S11313B09E01215B3F4FF90120813181FC01318382
S11313C02083CE018D5A9F4FFC018081918101972A
S11313D0F1F79E012D5A3F4FF9019183808341E03B
S11313E064E084E40E94C51041E065E084E40E9466
S11313F0C51041E066E084E40E94C51041E067E066
S113140084E40E94C51041E063E081E40E94C510B9
S113141041E062E081E40E94C51041E061E081E4C2
S11314200E94C51040E062E081E40E94A41182E0C1
S11314300E94BF0D80E090E0A0E2B1E48D839E8322
S1131440AF83B8878E010F5B1F4F20E030E04AE77F
S113145053E46D817E818F8198850E944B16DC0157
S1131460CB01F80180839183A283B383CE018F5B88
S11314709F4F20E030E040E85FE3FC016081718130
S1131480828193810E94EE1488234CF4CE018B5BFD
S11314909F4F21E030E0FC013183208369C0CE01FD
S11314A08F5B9F4F20E03FEF4FE757E4FC016081E3
S11314B07181828193810E94461618160CF046C0F1
S11314C020E030E040E251E46D817E818F81988597
S11314D00E944B16DC01CB018E010B5B1F4FBC013C
S11314E0CD010E946515DC01CB01F8019183808355
S11314F024C0CE01895B9F4F29E130E0FC01318398
S11315002083CE01895B9F4FFC01808191810197EB
S1131510F1F79E01295B3F4FF90191838083CE014E
S11315208B5B9F4F9E012B5B3F4FF90120813181E3
S113153021503109FC0131832083CE018B5B9F4F05
S1131540FC0180819181892BA1F62CC08E010B5B5B
S11315501F4FCE018F5B9F4FFC016081718182819F
S113156093810E946515DC01CB01F801918380838E
S1131570CE01875B9F4F9E012B5B3F4FF90120817A
S11315803181FC0131832083CE01875B9F4FFC01B5
S1131590808191810197F1F79E01275B3F4FF9010B
S11315A09183808388E20E94BF0D80E090E0A0E8F0
S11315B0BFE389879A87AB87BC8720E030E04AE79E
S11315C053E469857A858B859C850E944B16DC01E2
S11315D0CB018FAB98AFA9AFBAAF20E030E040E8C1
S11315E05FE36FA978AD89AD9AAD0E94EE148823AC
S11315F02CF481E090E09CAF8BAF3FC020E03FEF44
S11316004FE757E46FA978AD89AD9AAD0E944616AD
S113161018164CF520E030E040E251E469857A8503
S11316208B859C850E944B16DC01CB01BC01CD014E
S11316300E946515DC01CB019CAF8BAF0FC089E123
S113164090E09EAF8DAF8DAD9EAD0197F1F79EAF4B
S11316508DAF8BAD9CAD01979CAF8BAF8BAD9CAD2B
S1131660892B69F71EC06FA978AD89AD9AAD0E9428
S11316706515DC01CB019CAF8BAF2BAD3CADCE012E
S1131680CF96FC0131832083CE01CF96FC0180816B
S113169091810197F1F79E01215C3F4FF9019183FC
S11316A080838CE00E94BF0D80E090E0A0E8BFE35F
S11316B08D879E87AF87B88B20E030E04AE753E4FC
S11316C06D857E858F8598890E944B16DC01CB0140
S11316D08DA79EA7AFA7B8AB20E030E040E85FE35A
S11316E06DA57EA58FA598A90E94EE1488232CF4DD
S11316F081E090E09AAB89AB3FC020E03FEF4FE739
S113170057E46DA57EA58FA598A90E9446161816C4
S11317104CF520E030E040E251E46D857E858F8514
S113172098890E944B16DC01CB01BC01CD010E94BB
S11317306515DC01CB019AAB89AB0FC089E190E060
S11317409CAB8BAB8BA99CA90197F1F79CAB8BABA2
S113175089A99AA901979AAB89AB89A99AA9892BD6
S113176069F714C06DA57EA58FA598A90E9465157B
S1131770DC01CB019AAB89AB89A99AA99EAB8DAB4D
S11317808DA99EA90197F1F79EAB8DAB81E00E94D4
S1131790BF0D80E090E0A0E2B1E4898B9A8BAB8B23
S11317A0BC8B20E030E04AE753E469897A898B896D
S11317B09C890E944B16DC01CB018BA39CA3ADA397
S11317C0BEA320E030E040E85FE36BA17CA18DA1E3
S11317D09EA10E94EE1488232CF481E090E098A747
S11317E08FA33FC020E03FEF4FE757E46BA17CA1FC
S11317F08DA19EA10E94461618164CF520E030E0FB
S113180040E251E469897A898B899C890E944B164C
S1131810DC01CB01BC01CD010E946515DC01CB01CB
S113182098A78FA30FC089E190E09AA789A789A5FB
S11318309AA50197F1F79AA789A78FA198A501976F
S113184098A78FA38FA198A5892B69F714C06BA1C2
S11318507CA18DA19EA10E946515DC01CB0198A7F6
S11318608FA38FA198A59CA78BA78BA59CA5019757
S1131870F1F79CA78BA786E00E94BF0D80E090E063
S1131880A0E8BFE38D8B9E8BAF8BB88F20E030E058
S11318904AE753E46D897E898F89988D0E944B169F
S11318A0DC01CB01898F9A8FAB8FBC8F20E030E0B5
S11318B040E85FE3698D7A8D8B8D9C8D0E94EE14D8
S11318C088232CF481E090E09E8F8D8F3FC020E030
S11318D03FEF4FE757E4698D7A8D8B8D9C8D0E9485
S11318E0461618164CF520E030E040E251E46D89CC
S11318F07E898F89988D0E944B16DC01CB01BC0137
S1131900CD010E946515DC01CB019E8F8D8F0FC028
S113191089E190E098A38F8F8F8D98A10197F1F7BB
S113192098A38F8F8D8D9E8D01979E8F8D8F8D8D1A
S11319309E8D892B69F714C0698D7A8D8B8D9C8D52
S11319400E946515DC01CB019E8F8D8F8D8D9E8D40
S11319509AA389A389A19AA10197F1F79AA389A3CC
S11319600000CC5ADF4F0FB6F894DEBF0FBECDBFD8
S1131970DF91CF911F910F910895CF93DF93CDB74E
S1131980DEB76C970FB6F894DEBF0FBECDBF41E053
S113199063E081E40E94A41180E090E0A0E0B0E460
S11319A089839A83AB83BC8320E030E04AE753E425
S11319B069817A818B819C810E944B16DC01CB0169
S11319C08B8B9C8BAD8BBE8B20E030E040E85FE3DB
S11319D06B897C898D899E890E94EE1488232CF45E
S11319E081E090E0988F8F8B3FC020E03FEF4FE77E
S11319F057E46B897C898D899E890E944616181646
S1131A004CF520E030E040E251E469817A818B8139
S1131A109C810E944B16DC01CB01BC01CD010E94CC
S1131A206515DC01CB01988F8F8B0FC089E190E0A5
S1131A309A8F898F898D9A8D0197F1F79A8F898F63
S1131A408F89988D0197988F8F8B8F89988D892B8B
S1131A5069F714C06B897C898D899E890E946515FC
S1131A60DC01CB01988F8F8B8F89988D9C8F8B8F06
S1131A708B8D9C8D0197F1F79C8F8B8F40E063E0F9
S1131A8081E40E94A41180E090E0A0E0B0E48D83A2
S1131A909E83AF83B88720E030E04AE753E46D814A
S1131AA07E818F8198850E944B16DC01CB0189874A
S1131AB09A87AB87BC8720E030E040E85FE3698524
S1131AC07A858B859C850E94EE1488232CF481E012
S1131AD090E09E878D873FC020E03FEF4FE757E4BB
S1131AE069857A858B859C850E94461618164CF567
S1131AF020E030E040E251E46D817E818F81988561
S1131B000E944B16DC01CB01BC01CD010E9465157E
S1131B10DC01CB019E878D870FC089E190E0988B13
S1131B208F878F8598890197F1F7988B8F878D859B
S1131B309E8501979E878D878D859E85892B69F764
S1131B4014C069857A858B859C850E946515DC01A6
S1131B50CB019E878D878D859E859A8B898B8989FC
S1131B609A890197F1F79A8B898B00006C960FB6CE
S1131B70F894DEBF0FBECDBFDF91CF910895CF9310
S1131B80DF93CDB7DEB72F970FB6F894DEBF0FBE45
S1131B90CDBF8F878F8582958F70682F84E40E94D4
S1131BA0F51240E061E081E40E94A4110E94BD0CA2
S1131BB06F8584E40E94F51240E061E081E40E94B4
S1131BC0A4110E94BD0C80E090E0A0E8BFE38983EB
S1131BD09A83AB83BC8320E030E04AE753E4698115
S1131BE07A818B819C810E944B16DC01CB018D8311
S1131BF09E83AF83B88720E030E040E85FE36D81E7
S1131C007E818F8198850E94EE1488232CF481E0D4
S1131C1090E09A8789873FC020E03FEF4FE757E481
S1131C206D817E818F8198850E94461618164CF529
S1131C3020E030E040E251E469817A818B819C812B
S1131C400E944B16DC01CB01BC01CD010E9465153D
S1131C50DC01CB019A8789870FC089E190E09C87DA
S1131C608B878B859C850197F1F79C878B8789856A
S1131C709A8501979A87898789859A85892B69F737
S1131C8014C06D817E818F8198850E946515DC0169
S1131C90CB019A87898789859A859E878D878D85CB
S1131CA09E850197F1F79E878D8700002F960FB6CA
S1131CB0F894DEBF0FBECDBFDF91CF910895CF93CF
S1131CC0DF93CDB7DEB72F970FB6F894DEBF0FBE04
S1131CD0CDBF8F878F8582958F70682F84E40E9493
S1131CE0F51241E061E081E40E94A4110E94BD0C60
S1131CF06F8584E40E94F51241E061E081E40E9472
S1131D00A4110E94BD0C80E090E0A0E8BFE38983A9
S1131D109A83AB83BC8320E030E04AE753E46981D3
S1131D207A818B819C810E944B16DC01CB018D83CF
S1131D309E83AF83B88720E030E040E85FE36D81A5
S1131D407E818F8198850E94EE1488232CF481E093
S1131D5090E09A8789873FC020E03FEF4FE757E440
S1131D606D817E818F8198850E94461618164CF5E8
S1131D7020E030E040E251E469817A818B819C81EA
S1131D800E944B16DC01CB01BC01CD010E946515FC
S1131D90DC01CB019A8789870FC089E190E09C8799
S1131DA08B878B859C850197F1F79C878B87898529
S1131DB09A8501979A87898789859A85892B69F7F6
S1131DC014C06D817E818F8198850E946515DC0128
S1131DD0CB019A87898789859A859E878D878D858A
S1131DE09E850197F1F79E878D8700002F960FB689
S1131DF0F894DEBF0FBECDBFDF91CF910895CF938E
S1131E00DF9300D0CDB7DEB79A8389831092D000D8
S1131E1011C08091D000882F90E029813A81820FEF
S1131E20931FFC0180810E945F0E8091D0008F5F20
S1131E308093D0008091D000882F90E029813A814E
S1131E40820F931FFC018081882319F700000F90F3
S1131E500F90DF91CF910895CF93DF93CDB7DEB785
S1131E602E970FB6F894DEBF0FBECDBF81E00E945F
S1131E70BF0D80E090E0A0E2B1E489839A83AB8354
S1131E80BC8320E030E04AE753E469817A818B81A6
S1131E909C810E944B16DC01CB018D839E83AF8312
S1131EA0B88720E030E040E85FE36D817E818F8178
S1131EB098850E94EE1488232CF481E090E09A87A0
S1131EC089873FC020E03FEF4FE757E46D817E8173
S1131ED08F8198850E94461618164CF520E030E054
S1131EE040E251E469817A818B819C810E944B1686
S1131EF0DC01CB01BC01CD010E946515DC01CB01E5
S1131F009A8789870FC089E190E09C878B878B85AE
S1131F109C850197F1F79C878B8789859A85019722
S1131F209A87898789859A85892B69F714C06D8179
S1131F307E818F8198850E946515DC01CB019A878B
S1131F40898789859A859E878D878D859E8501974A
S1131F50F1F79E878D8700002E960FB6F894DEBFAA
S1131F600FBECDBFDF91CF910895CF93DF93CDB74F
S1131F70DEB761970FB6F894DEBF0FBECDBF888B76
S1131F80698B19828889833048F48889882331F0E1
S1131F908989813118F48989882319F480E889832F
S1131FA00DC08889813021F489898158898306C0CC
S1131FB08889823019F489898154898389810E94AE
S1131FC0BF0D80E090E0A0E8BFE38A839B83AC83ED
S1131FD0BD8320E030E04AE753E46A817B818C8151
S1131FE09D810E944B16DC01CB018E839F83A887C1
S1131FF0B98720E030E040E85FE36E817F81888527
S113200099850E94EE1488232CF481E090E09B874C
S11320108A873FC020E03FEF4FE757E46E817F811E
S1132020888599850E94461618164CF520E030E004
S113203040E251E46A817B818C819D810E944B1630
S1132040DC01CB01BC01CD010E946515DC01CB0193
S11320509B878A870FC089E190E09D878C878C8558
S11320609D850197F1F79D878C878A859B850197CC
S11320709B878A878A859B85892B69F714C06E8123
S11320807F81888599850E946515DC01CB019B873A
S11320908A878A859B859F878E878E859F850197F2
S11320A0F1F79F878E87000061960FB6F894DEBF24
S11320B00FBECDBFDF91CF910895CF93DF93CDB7FE
S11320C0DEB787E290E0FC01108287E290E027E22D
S11320D030E0F90120812064FC01208386E290E055
S11320E027E8FC0120830000DF91CF910895CF936E
S11320F0DF93CDB7DEB786E290E026E230E0F90167
S113210020812064FC012083000086E290E0FC0131
S11321108081882F90E080749927892BB1F784E21D
S113212090E0FC0180819181CC01A0E0B0E0BC0191
S1132130CD01DF91CF910895CF93DF9300D000D0EC
S1132140CDB7DEB769837A838B839C8369817A8177
S11321508B819C810E949415DC01CB012AE038E23A
S113216040EA5BE3BC01CD010E944B16DC01CB01CC
S1132170BC01CD010E946515DC01CB010F900F90CD
S11321800F900F90DF91CF910895CF93DF9300D0FC
S11321901F92CDB7DEB789836A834B838981882FE9
S11321A090E08234910509F43EC08334910524F40F
S11321B08134910551F0C1C08334910509F461C0A3
S11321C08434910509F48BC0B8C08B818130A9F4A3
S11321D08AE390E02AE330E0F9012081622F2A812A
S11321E0422F50E021E030E002C0220F331F4A9515
S11321F0E2F7262BFC012083A0C08AE390E02AE3C7
S113220030E0F9012081622F2A81422F50E021E041
S113221030E002C0220F331F4A95E2F720952623AF
S1132220FC0120838AC08B818130A9F487E390E08C
S113223027E330E0F9012081622F2A81422F50E008
S113224021E030E002C0220F331F4A95E2F7262B2B
S1132250FC01208372C087E390E027E330E0F901BA
S11322602081622F2A81422F50E021E030E002C019
S1132270220F331F4A95E2F720952623FC01208381
S11322805CC08B818130A9F484E390E024E330E0E6
S1132290F9012081622F2A81422F50E021E030E0B1
S11322A002C0220F331F4A95E2F7262BFC0120833C
S11322B044C084E390E024E330E0F9012081622FFC
S11322C02A81422F50E021E030E002C0220F331F68
S11322D04A95E2F720952623FC0120832EC08B81AA
S11322E08130A9F481E390E021E330E0F901208119
S11322F0622F2A81422F50E021E030E002C0220FF9
S1132300331F4A95E2F7262BFC01208315C081E395
S113231090E021E330E0F9012081622F2A81422FED
S113232050E021E030E002C0220F331F4A95E2F76B
S113233020952623FC012083000000000F900F90BD
S11323400F90DF91CF910895CF93DF9300D01F9228
S1132350CDB7DEB789836A834B838981882F90E068
S11323608234910509F43EC08334910524F4813408
S1132370910551F0C1C08334910509F461C08434DE
S1132380910509F48BC0B8C08B818130A9F48BE32B
S113239090E02BE330E0F9012081622F2A81422F63
S11323A050E021E030E002C0220F331F4A95E2F7EB
S11323B0262BFC012083A0C08BE390E02BE330E0CC
S11323C0F9012081622F2A81422F50E021E030E080
S11323D002C0220F331F4A95E2F720952623FC0101
S11323E020838AC08B818130A9F488E390E028E3BC
S11323F030E0F9012081622F2A81422F50E021E050
S113240030E002C0220F331F4A95E2F7262BFC016D
S1132410208372C088E390E028E330E0F901208152
S1132420622F2A81422F50E021E030E002C0220FC7
S1132430331F4A95E2F720952623FC0120835CC0D4
S11324408B818130A9F485E390E025E330E0F90144
S11324502081622F2A81422F50E021E030E002C027
S1132460220F331F4A95E2F7262BFC01208344C038
S113247085E390E025E330E0F9012081622F2A8191
S1132480422F50E021E030E002C0220F331F4A9572
S1132490E2F720952623FC0120832EC08B81813016
S11324A0A9F482E390E022E330E0F9012081622F75
S11324B02A81422F50E021E030E002C0220F331F76
S11324C04A95E2F7262BFC01208315C082E390E0B5
S11324D022E330E0F9012081622F2A81422F50E06B
S11324E021E030E002C0220F331F4A95E2F7209525
S11324F02623FC012083000000000F900F900F9012
S1132500DF91CF910895CF93DF9300D0CDB7DEB79D
S113251089836A838981882F90E082349105A1F0B0
S11325208334910524F48134910541F01FC0833430
S1132530910581F08434910599F018C08AE390E004
S11325402A81FC01208312C087E390E02A81FC01E8
S113255020830CC084E390E02A81FC01208306C020
S113256081E390E02A81FC012083000000000F90A9
S11325700F90DF91CF910895CF93DF9300D0CDB723
S1132580DEB789836A838981882F90E0823491053C
S1132590A1F08334910524F48134910541F01FC0E6
S11325A08334910581F08434910599F018C08BE34C
S11325B090E02A81FC01208312C088E390E02A8104
S11325C0FC0120830CC085E390E02A81FC01208378
S11325D006C082E390E02A81FC0120830000000011
S11325E00F900F90DF91CF910895CF93DF9300D098
S11325F0CDB7DEB789836A838A818295807F8A8397
S11326008981882F90E08234910511F183349105FA
S113261024F48134910541F057C08334910561F16C
S113262084349105E9F150C08BE390E02BE330E072
S1132630F90120812F70FC0120838BE390E02BE3D0
S113264030E0F90130812A81232BFC0120833CC036
S113265088E390E028E330E0F90120812F70FC0149
S1132660208388E390E028E330E0F90130812A8177
S1132670232BFC01208328C085E390E025E330E090
S1132680F90120812F70FC01208385E390E025E38C
S113269030E0F90130812A81232BFC01208314C00E
S11326A082E390E022E330E0F90120812F70FC0105
S11326B0208382E390E022E330E0F90130812A8133
S11326C0232BFC012083000000000F900F90DF916A
S11326D0CF910895CF93DF93CDB7DEB787E390E032
S11326E020EBFC0120838DE290E02DE230E0F90143
S11326F020812061FC0120838DE290E02DE230E016
S1132700F90120812160FC0120838DE290E02DE21B
S113271030E0F90120812260FC0120838DE290E009
S11327202DE230E0F90120812460FC0120838DE258
S113273090E02DE230E0F90120812064FC01208347
S11327408DE290E02DE230E0F90120812068FC0167
S113275020830000DF91CF910895CF93DF931F92E0
S1132760CDB7DEB789838FE290E02981FC01208315
S113277000008EE290E0FC0180818823D4F7000001
S11327800F90DF91CF910895CF93DF93CDB7DEB74C
S113279000008EE290E0FC0180818823D4F78FE270
S11327A090E0FC018081DF91CF910895CF93DF9376
S11327B0CDB7DEB72E970FB6F894DEBF0FBECDBFF0
S11327C088E390E028E330E0F90120812061FC01F6
S11327D0208380E80E94AD1380E40E94AD1388E357
S11327E090E028E330E0F90120812F7EFC01208372
S11327F080E090E0A6E1B3E489839A83AB83BC8351
S113280020E030E04AE753E469817A818B819C813E
S11328100E944B16DC01CB018D839E83AF83B88766
S113282020E030E040E85FE36D817E818F81988510
S11328300E94EE1488232CF481E090E09A87898723
S11328403FC020E03FEF4FE757E46D817E818F81E9
S113285098850E94461618164CF520E030E040E2B8
S113286051E469817A818B819C810E944B16DC0141
S1132870CB01BC01CD010E946515DC01CB019A8717
S113288089870FC089E190E09C878B878B859C8525
S11328900197F1F79C878B8789859A8501979A8799
S11328A0898789859A85892B69F714C06D817E8112
S11328B08F8198850E946515DC01CB019A878987F1
S11328C089859A859E878D878D859E850197F1F7E9
S11328D09E878D8700002E960FB6F894DEBF0FBE3C
S11328E0CDBFDF91CF910895CF93DF93CDB7DEB7FE
S11328F00E94F8070E9449000E94D7000E94960592
S1132900FDCF5058BB27AA270E9499140C940C168B
S11329100E94FE1538F00E94051620F039F49F3FFE
S113292019F426F40C94FB150EF4E095E7FB0C94D3
S1132930F515E92F0E941D1658F3BA17620773079D
S11329408407950720F079F4A6F50C943F160EF44D
S1132950E0950B2EBA2FA02D0B01B90190010C01AB
S1132960CA01A0011124FF27591B99F0593F50F4C3
S1132970503E68F11A16F040A22F232F342F44271B
S1132980585FF3CF469537952795A795F040539513
S1132990C9F77EF41F16BA0B620B730B840BBAF0E3
S11329A09150A1F0FF0FBB1F661F771F881FC2F74E
S11329B00EC0BA0F621F731F841F48F48795779562
S11329C06795B795F7959E3F08F0B0CF9395880F1C
S11329D008F09927EE0F9795879508950E94D115D1
S11329E008F481E008950E9407150C940C160E94C7
S11329F0051658F00E94FE1540F029F45F3F29F0B7
S1132A000C94F51551110C9440160C94FB150E946E
S1132A101D1668F39923B1F3552391F3951B550BB8
S1132A20BB27AA2762177307840738F09F5F5F4F9D
S1132A30220F331F441FAA1FA9F335D00E2E3AF0DC
S1132A40E0E832D091505040E695001CCAF72BD0F4
S1132A50FE2F29D0660F771F881FBB1F2617370745
S1132A604807AB07B0E809F0BB0B802DBF01FF2777
S1132A7093585F4F3AF09E3F510578F00C94F5154A
S1132A800C9440165F3FE4F3983ED4F38695779513
S1132A906795B795F7959F5FC9F7880F911D969530
S1132AA0879597F90895E1E0660F771F881FBB1F8C
S1132AB0621773078407BA0720F0621B730B840B39
S1132AC0BA0BEE1F88F7E09508950E94251688F04A
S1132AD09F5798F0B92F9927B751B0F0E1F0660FDE
S1132AE0771F881F991F1AF0BA95C9F714C0B1301F
S1132AF091F00E943F16B1E008950C943F16672FA1
S1132B00782F8827B85F39F0B93FCCF3869577954D
S1132B106795B395D9F73EF4909580957095619536
S1132B207F4F8F4F9F4F0895E89409C097FB3EF461
S1132B3090958095709561957F4F8F4F9F4F992306
S1132B40A9F0F92F96E9BB279395F6958795779584
S1132B506795B795F111F8CFFAF4BB0F11F460FF44
S1132B601BC06F5F7F4F8F4F9F4F16C0882311F09C
S1132B7096E911C0772321F09EE8872F762F05C0B0
S1132B80662371F096E8862F70E060E02AF09A954B
S1132B90660F771F881FDAF7880F9695879597F940
S1132BA00895990F0008550FAA0BE0E8FEEF1616DA
S1132BB01706E807F907C0F012161306E407F5072D
S1132BC098F0621B730B840B950B39F40A2661F0A1
S1132BD0232B242B252B21F408950A2609F4A14044
S1132BE0A6958FEF811D811D089597F99F6780E851
S1132BF070E060E008959FEF80EC089500240A944B
S1132C001616170618060906089500240A941216C3
S1132C101306140605060895092E0394000C11F4F6
S1132C20882352F0BB0F40F4BF2B11F460FF04C0A3
S1132C306F5F7F4F8F4F9F4F089557FD9058440FFC
S1132C40551F59F05F3F71F04795880F97FB991F07
S1132C5061F09F3F79F087950895121613061406C4
S1132C60551FF2CF4695F1DF08C016161706180651
S1132C70991FF1CF86957105610508940895E8942C
S1132C80BB2766277727CB0197F908950E94D115B2
S1132C9008F48FEF08950E945E160C940C160E949F
S1132CA0FE1538F00E94051620F0952311F00C94BF
S1132CB0F5150C94FB1511240C9440160E941D1656
S1132CC070F3959FC1F3950F50E0551F629FF0017B
S1132CD0729FBB27F00DB11D639FAA27F00DB11D94
S1132CE0AA1F649F6627B00DA11D661F829F22271D
S1132CF0B00DA11D621F739FB00DA11D621F839FA4
S1132D00A00D611D221F749F3327A00D611D231F79
S1132D10849F600D211D822F762F6A2F11249F57C7
S1132D2050409AF0F1F088234AF0EE0FFF1FBB1FCA
S1132D30661F771F881F91505040A9F79E3F510589
S1132D4080F00C94F5150C9440165F3FE4F3983E24
S1132D50D4F3869577956795B795F795E7959F5F33
S1132D60C1F7FE2B880F911D9695879597F90895C5
S1132D70A29FB001B39FC001A39F700D811D1124B8
S1132D80911DB29F700D811D1124911D0895FC01A8
S1132D9088279927E89421912032E9F3293010F00B
S1132DA02E30C8F32B3241F02D3239F4689404C02C
S1132DB00E94FB16820F911D219120532A30C0F3EB
S1132DC01EF4909581959F4F08954532510520F446
S1132DD0423010F00C94F016FB011082CB010895E0
S1132DE0BB274A3031F4992322F4BDE290958195B2
S1132DF09F4F0C9404177AE0979F902D879F802D06
S1132E00910D11240895BB27FB015527AA27880F8C
S1132E10991FAA1FA41710F0A41B83955051B9F74A
S1132E20A05DAA3308F0A95DA193009779F7B111C9
S1132E30B1931192CB010C941D17DC01FC01672F97
S1132E4071917723E1F7329704C07C916D9370837D
S1112E506291AE17BF07C8F30895F894FFCF40
S1132E5E57454C434F4D45005345543A3235004384
S1132E6E52543A0053544154453A5354414E4442F9
S1132E7E590053544154453A004F50455241544918
S1132E8E4F4E004E4F524D414C004552524F520040
S1112E9E053132333435363738392A302300C3
S9030000FC
