S00C00006D61696E2E7372656373
S11300000C942A000C9447000C9447000C9447006D
S11300100C94C3030C9447000C9447000C944700C1
S11300200C9447000C9447000C9447000C94470030
S11300300C9447000C9447000C9447000C94470020
S11300400C9447000C9447000C9447000C94470010
S11300500C94470011241FBECFE5D8E0DEBFCDBF0E
S113006010E0A0E6B0E0EAEDFAE202C005900D92DD
S1130070A83BB107D9F720E0A8EBB0E001C01D927E
S1130080AA3DB207E1F70E94B1120C946B150C94CF
S11300900000CF93DF93CDB7DEB72E970FB6F89459
S11300A0DEBF0FBECDBF0E94F0070E94CF060E94A4
S11300B0A7110E94131280E090E0A6E1B3E48983C3
S11300C09A83AB83BC8320E030E04AE755E469813E
S11300D07A818B819C810E948914DC01CB018D8300
S11300E09E83AF83B88720E030E040E85FE36D8112
S11300F07E818F8198850E942C1388232CF481E0C3
S113010090E09A8789873FC020E03FEF4FE757E4AC
S11301106D817E818F8198850E94841418164CF518
S113012020E030E040E251E469817A818B819C8156
S11301300E948914DC01CB01BC01CD010E94A313F0
S1130140DC01CB019A8789870FC080E991E09C8705
S11301508B878B859C850197F1F79C878B87898595
S11301609A8501979A87898789859A85892B69F762
S113017014C06D817E818F8198850E94A313DC0158
S1130180CB019A87898789859A859E878D878D85F6
S11301909E850197F1F79E878D8700002E960FB6F6
S11301A0F894DEBF0FBECDBFDF91CF910895CF93FA
S11301B0DF93CDB7DEB72E970FB6F894DEBF0FBE30
S11301C0CDBF80E090E0A0E7B1E489839A83AB835C
S11301D0BC8320E030E04AE755E469817A818B8171
S11301E09C810E948914DC01CB018D839E83AF83A3
S11301F0B88720E030E040E85FE36D817E818F8145
S113020098850E942C1388232CF481E090E09A872F
S113021089873FC020E03FEF4FE757E46D817E813F
S11302208F8198850E94841418164CF520E030E0E4
S113023040E251E469817A818B819C810E94891416
S1130240DC01CB01BC01CD010E94A313DC01CB0175
S11302509A8789870FC080E991E09C878B878B857B
S11302609C850197F1F79C878B8789859A850197EF
S11302709A87898789859A85892B69F714C06D8146
S11302807E818F8198850E94A313DC01CB019A871C
S1130290898789859A859E878D878D859E85019717
S11302A0F1F79E878D8761E081E00E94F20D88E678
S11302B090E00E94C50D6BE081E00E94F20D8FE694
S11302C090E00E94C50D61E082E00E94F20D84E797
S11302D090E00E94C50D00002E960FB6F894DEBF84
S11302E00FBECDBFDF91CF910895CF93DF931F92BF
S11302F0CDB7DEB781E08093D70019829091D80002
S11303008091AB00890F682F81E00E94F20D1FC01D
S11303100E945D07898389818A32F9F08981833259
S1130320E1F089810E94250D8091D800882F90E00A
S113033084549F4F2981FC0120838091D8008F5FD2
S11303408093D8008091D80081708093D8008981EF
S11303508A3219F089818332D9F68CEB90E00E94BD
S113036005159093B9008093B80081E08093BF0095
S11303701092D70000000F90DF91CF910895CF9392
S1130380DF93CDB7DEB72F970FB6F894DEBF0FBE5D
S1130390CDBF198288E390E028E330E0F9012081A1
S11303A02061FC01208382E00E94EA1180E00E9427
S11303B0EA1188E390E028E330E0F90120812F7E00
S11303C0FC01208380E090E0A0E8BFE38A839B8364
S11303D0AC83BD8320E030E04AE755E46A817B8149
S11303E08C819D810E948914DC01CB018E839F83C3
S11303F0A887B98720E030E040E85FE36E817F8121
S1130400888599850E942C1388232CF481E090E040
S11304109B878A873FC020E03FEF4FE757E46E8118
S11304207F81888599850E94841418164CF520E0F4
S113043030E040E251E46A817B818C819D810E949D
S11304408914DC01CB01BC01CD010E94A313DC01A2
S1130450CB019B878A870FC080E991E09D878C87B9
S11304608C859D850197F1F79D878C878A859B856F
S113047001979B878A878A859B85892B69F714C096
S11304806E817F81888599850E94A313DC01CB014D
S11304909B878A878A859B859F878E878E859F8584
S11304A00197F1F79F878E870E94011289838981C2
S11304B02F960FB6F894DEBF0FBECDBFDF91CF915C
S11304C00895CF93DF9300D000D0CDB7DEB7198263
S11304D00E94BF018A838A81882F90E09E012D5F4C
S11304E03F4F4AE050E0B9010E9423156FE081E0DC
S11304F00E94F20DCE0103960E94C50DCE01039613
S11305000E9405159093BB008093BA0000000F90E1
S11305100F900F900F90DF91CF910895CF93DF93B9
S1130520CDB7DEB78091BA009091BB00DF91CF9137
S11305300895CF93DF93CDB7DEB78091B800909143
S1130540B900DF91CF9108950F931F93CF93DF9359
S1130550CDB7DEB70E9499028C010E948E029801E9
S1130560281B390BC901CC01A0E0B0E0BC01CD01CE
S11305700E94D213DC01CB0120E030E048EC52E4CD
S1130580BC01CD010E943113DC01CB0120E030E03D
S113059040E251E4BC01CD010E948914DC01CB018D
S11305A08093CB009093CC00A093CD00B093CE0069
S11305B08091CB009091CC00A091CD00B091CE0061
S11305C0BC01CD01DF91CF911F910F910895CF937D
S11305D0DF9300D000D0CDB7DEB70E949A0E0E9400
S11305E0B40EDC01CB0189839A83AB83BC838981FC
S11305F09A81AB81BC81BC01CD010E94D90E882FA8
S113060090E0A0E0B0E0BC01CD010E94D213DC0177
S1130610CB018093CF009093D000A093D100B093EE
S1130620D2008091CF009091D000A091D100B091E0
S1130630D200BC01CD010F900F900F900F90DF916D
S1130640CF910895CF93DF93CDB7DEB728970FB638
S1130650F894DEBF0FBECDBF0E94CB050E94A4025A
S1130660DC01CB0189839A83AB83BC830E94E702BC
S1130670DC01CB018D839E83AF83B88729813A81C6
S11306804B815C818D819E81AF81B885BC01CD0198
S11306900E94EC05000028960FB6F894DEBF0FBE4A
S11306A0CDBFDF91CF910895CF93DF93CDB7DEB760
S11306B081E08093C6000000DF91CF910895CF932D
S11306C0DF93CDB7DEB781E08093C7000000DF91F0
S11306D0CF910895CF93DF93CDB7DEB781E08093B8
S11306E0C8000000DF91CF910895CF93DF93CDB779
S11306F0DEB781E08093C9000000DF91CF910895B7
S1130700CF93DF93CDB7DEB781E08093CA000000BA
S1130710DF91CF910895CF93DF93CDB7DEB71092D9
S1130720C6001092C5001092C4001092C3000000CD
S1130730DF91CF910895CF93DF93CDB7DEB71092B9
S1130740C7000000DF91CF910895CF93DF93CDB719
S1130750DEB71092C8000000DF91CF910895CF93C7
S1130760DF93CDB7DEB71092C9000000DF91CF91BF
S11307700895CF93DF93CDB7DEB71092CA0000007F
S1130780DF91CF9108951F920F9200905F000F9216
S113079011242F933F934F935F936F937F938F9382
S11307A09F93AF93BF93EF93FF93CF93DF93CDB713
S11307B0DEB78091D700882311F40E94F40300006F
S11307C0DF91CF91FF91EF91BF91AF919F918F9165
S11307D07F916F915F914F913F912F910F90009274
S11307E05F000F901F901895CF93DF93CDB7DEB7BE
S11307F08091C1009091C20001969093C2008093B1
S1130800C1000E94A8044091C1005091C200CA01D5
S11308109695879596958795969587959C01ABE7D0
S1130820B4E10E94F6149695879568EC689F900150
S1130830699F300D1124CA01821B930B892B61F42B
S11308408091C700882311F00E9461028091C80042
S1130850882311F00E9422034091C1005091C200EC
S1130860CA0196958795969587959C01A5ECB0E26B
S11308700E94F614929582958F7089279F7089271C
S113088064EF71E0869F9001879F300D969F300D35
S11308901124CA01821B930B892B31F48091CA0065
S11308A0882311F00E94E7022091C3008BEA289F5D
S11308B0812D1124982F9695892F880F890F922FB7
S11308C0981B992331F48091C900882311F00E9468
S11308D09D048091C600882349F08091C4009091C2
S11308E0C50001969093C5008093C4002091C40074
S11308F03091C50081E090E020364AEE340710F4D0
S113090080E090E060E67AEE869FA001879F500D1C
S1130910969F500D1124C901841B950B892B49F412
S11309201092C5001092C4008091C3008F5F809321
S1130930C3000000DF91CF910895CF93DF93CDB72B
S1130940DEB781E08093C0000000DF91CF9108956D
S1130950CF93DF93CDB7DEB78091BE00882F90E0B0
S113096081309105F9F0823091051CF4892B49F00E
S11309700EC18230910509F499C0039709F4F3C0BC
S113098006C10E94D7000E9475010E94A5030E941F
S11309909B038091BF00813009F0F4C081E0809313
S11309A0BE00F0C061E082E00E94F20D82E890E0B7
S11309B00E94C50D0E945F030E946A030E94800387
S11309C00E9461020E948E029093D4008093D3000F
S11309D00E9499029093D6008093D5002091D30071
S11309E03091D4008091D5009091D600821793075E
S11309F0B0F42091D3003091D4008091D50090912F
S1130A00D600A901481B590BCA01069740F482E09D
S1130A108093BE000E948B030E94AF033EC02091CE
S1130A20D3003091D4008091D5009091D60028173E
S1130A303907B0F42091D5003091D6008091D300CD
S1130A409091D400A901481B590BCA01069740F4A0
S1130A5082E08093BE000E948B030E94AF031DC0FE
S1130A602091D5003091D6008091D3009091D4008C
S1130A708217930790F42091D5003091D60080918D
S1130A80D3009091D400A901481B590BCA010697C1
S1130A9020F00E9454030E9475038091C0008130AD
S1130AA009F072C083E08093BE006EC061E082E012
S1130AB00E94F20D82E990E00E94C50D0E945F033E
S1130AC00E9480030E94A5030E9461020E948E027C
S1130AD09093D4008093D3000E9499029093D600FF
S1130AE08093D5002091D5003091D6008091D30019
S1130AF09091D4008217930790F42091D5003091FF
S1130B00D6008091D3009091D400A901481B590BC1
S1130B10CA01069720F081E08093BE001CC020919A
S1130B20D3003091D4008091D5009091D6008217E3
S1130B30930788F42091D3003091D4008091D5009C
S1130B409091D600A901481B590BCA010B9718F0C4
S1130B5083E08093BE008091C0008823B9F083E0D5
S1130B608093BE0013C061E082E00E94F20D8FE921
S1130B7090E00E94C50D0E949B030E94A5030E9461
S1130B80B90305C0000003C0000001C0000000005C
S1130B90DF91CF910895CF93DF93CDB7DEB783E58F
S1130BA090E023E530E0F90120812966FC012083EF
S1130BB087E390E027E330E0F90120812860FC011D
S1130BC020838AE490E028EB3BE0FC01318320831E
S1130BD00000DF91CF9108950F931F93CF93DF937C
S1130BE0CDB7DEB72C970FB6F894DEBF0FBECDBFDE
S1130BF06D837E838F83988729873A874B875C87A9
S1130C0019821A821B821C828D819E81AF81B885D4
S1130C109C01AD01BC01CD010E94C012DC01CB01DD
S1130C2020E030E040E251E4BC01CD010E943113E8
S1130C30DC01CB0129853A854B855C85BC01CD015E
S1130C400E948914DC01CB0120E030E040E251E451
S1130C50BC01CD010E943113DC01CB0189839A834D
S1130C60AB83BC830CE510E069817A818B819C8124
S1130C700E94A313DC01CB01F801808300002C96B1
S1130C800FB6F894DEBF0FBECDBFDF91CF911F9199
S1130C900F910895CF93DF9300D000D0CDB7DEB786
S1130CA08B836C838B81823018F00E949D045FC01B
S1130CB08C81882F90E0092E000CAA0BBB0BBC0181
S1130CC0CD010E94D413DC01CB0124E23BED49E7C2
S1130CD05FE3BC01CD010E948914DC01CB0120E05B
S1130CE030E040E85FE3BC01CD010E94BF12DC01AB
S1130CF0CB01BC01CD010E94A313DC01CB019A837B
S1130D00898389819A818F3F910521F018F00E948F
S1130D109D042DC08B818823A1F48CE590E029816A
S1130D20FC01208383E590E02DE0FC01208389E52C
S1130D3090E029E530E0F90120812260FC01208364
S1130D4016C08B81813099F483E490E02981FC0101
S1130D50208385E490E02DE0FC01208389E590E088
S1130D6029E530E0F90120812068FC0120830F90FF
S1130D700F900F900F90DF91CF910895CF93DF9351
S1130D80CDB7DEB781E490E028E1FC01208381E463
S1130D9090E0FC0110820000DF91CF910895CF9381
S1130DA0DF93CDB7DEB76FE083E40E94C01080E527
S1130DB090E020E530E0F90120812B7FFC012083C5
S1130DC06FEF83E40E94F9100000DF91CF91089542
S1130DD0CF93DF9300D000D0CDB7DEB719821A824B
S1130DE01C821B8219825DC085E390E025E330E01C
S1130DF0F90120812F60FC01208385E390E025E345
S1130E0030E0F9012081622F2981422F50E021E056
S1130E1030E002C0220F331F4A95E2F720952623C3
S1130E20FC01208384E08A8336C083E390E0FC01E4
S1130E308081282F30E08A81482F50E081E090E0C3
S1130E4002C0880F991F4A95E2F7822393232A81CF
S1130E50222F30E002C0959587952A95E2F78C837E
S1130E608C818823A9F48981282F30E08A81882FF6
S1130E7090E0AC0144505109C901880F991F820FB9
S1130E80931F840F951F84559F4FFC0180818B8392
S1130E908A818F5F8A838A81873038F289818F5F64
S1130EA089838981843008F49FCF8B810F900F90C0
S1130EB00F900F90DF91CF910895CF93DF93CDB72B
S1130EC0DEB72F970FB6F894DEBF0FBECDBF1982E1
S1130ED072C080E090E0A0E2B1E48A839B83AC839B
S1130EE0BD8320E030E04AE753E46A817B818C8152
S1130EF09D810E948914DC01CB018E839F83A88786
S1130F00B98720E030E040E85FE36E817F81888527
S1130F1099850E942C1388232CF481E090E09B8710
S1130F208A873FC020E03FEF4FE757E46E817F811F
S1130F30888599850E94841418164CF520E030E0C9
S1130F4040E251E46A817B818C819D810E948914F5
S1130F50DC01CB01BC01CD010E94A313DC01CB0158
S1130F609B878A870FC089E190E09D878C878C8559
S1130F709D850197F1F79D878C878A859B850197CD
S1130F809B878A878A859B85892B69F714C06E8124
S1130F907F81888599850E94A313DC01CB019B87FF
S1130FA08A878A859B859F878E878E859F850197F3
S1130FB0F1F79F878E870E94E806882309F089CF7E
S1130FC00E94E806898389818823D1F389812F9639
S1130FD00FB6F894DEBF0FBECDBFDF91CF91089559
S1130FE00F931F93CF93DF93CDB7DEB7C455D109C9
S1130FF00FB6F894DEBF0FBECDBF80E090E0A0EA4C
S1131000B1E489839A83AB83BC838E01055B1F4F54
S113101020E030E04AE753E469817A818B819C8146
S11310200E948914DC01CB01F80180839183A2839F
S1131030B383CE01855B9F4F20E030E040E85FE35F
S1131040FC0160817181828193810E942C13882329
S11310504CF4CE01815B9F4F21E030E0FC013183F1
S1131060208369C0CE01855B9F4F20E03FEF4FE7AF
S113107057E4FC0160817181828193810E94841410
S113108018160CF046C020E030E040E251E46981DB
S11310907A818B819C810E948914DC01CB018E01B1
S11310A0015B1F4FBC01CD010E94A313DC01CB01E6
S11310B0F8019183808324C0CE018F5A9F4F29E188
S11310C030E0FC0131832083CE018F5A9F4FFC0115
S11310D0808191810197F1F79E012F5A3F4FF901C9
S11310E091838083CE01815B9F4F9E01215B3F4FA3
S11310F0F9012081318121503109FC0131832083A0
S1131100CE01815B9F4FFC0180819181892BA1F6E7
S11311102CC08E01015B1F4FCE01855B9F4FFC01EC
S113112060817181828193810E94A313DC01CB01D0
S1131130F80191838083CE018D5A9F4F9E01215BDC
S11311403F4FF90120813181FC0131832083CE019D
S11311508D5A9F4FFC01808191810197F1F79E0187
S11311602D5A3F4FF9019183808341E064E084E488
S11311700E94020F41E065E084E40E94020F41E016
S113118066E084E40E94020F41E067E084E40E9488
S1131190020F41E063E081E40E94020F41E062E05B
S11311A081E40E94020F41E061E081E40E94020FA9
S11311B040E062E081E40E94E10F82E00E94850C3D
S11311C080E090E0A0E2B1E48D839E83AF83B88792
S11311D08E010F5B1F4F20E030E04AE753E46D813E
S11311E07E818F8198850E948914DC01CB01F801EE
S11311F080839183A283B383CE018F5B9F4F20E0D2
S113120030E040E85FE3FC01608171818281938179
S11312100E942C1388234CF4CE018B5B9F4F21E05A
S113122030E0FC013183208369C0CE018F5B9F4F86
S113123020E03FEF4FE757E4FC0160817181828138
S113124093810E94841418160CF046C020E030E00C
S113125040E251E46D817E818F8198850E948914DA
S1131260DC01CB018E010B5B1F4FBC01CD010E9441
S1131270A313DC01CB01F8019183808324C0CE0148
S1131280895B9F4F29E130E0FC0131832083CE014B
S1131290895B9F4FFC01808191810197F1F79E0149
S11312A0295B3F4FF90191838083CE018B5B9F4F74
S11312B09E012B5B3F4FF90120813181215031097F
S11312C0FC0131832083CE018B5B9F4FFC01808125
S11312D09181892BA1F62CC08E010B5B1F4FCE018F
S11312E08F5B9F4FFC0160817181828193810E9499
S11312F0A313DC01CB01F80191838083CE01875BCA
S11313009F4F9E012B5B3F4FF90120813181FC01EE
S113131031832083CE01875B9F4FFC0180819181C3
S11313200197F1F79E01275B3F4FF9019183808379
S113133088E20E94850C80E090E0A0E8BFE3898702
S11313409A87AB87BC8720E030E04AE753E469859D
S11313507A858B859C850E948914DC01CB018FAB37
S113136098AFA9AFBAAF20E030E040E85FE36FA9DF
S113137078AD89AD9AAD0E942C1388232CF481E0BA
S113138090E09CAF8BAF3FC020E03FEF4FE757E4C6
S11313906FA978AD89AD9AAD0E94841418164CF5E6
S11313A020E030E040E251E469857A858B859C85B4
S11313B00E948914DC01CB01BC01CD010E94A3135E
S11313C0DC01CB019CAF8BAF0FC089E190E09EAFF5
S11313D08DAF8DAD9EAD0197F1F79EAF8DAF8BAD07
S11313E09CAD01979CAF8BAF8BAD9CAD892B69F7FE
S11313F01EC06FA978AD89AD9AAD0E94A313DC011C
S1131400CB019CAF8BAF2BAD3CADCE01CF96FC0195
S113141031832083CE01CF96FC0180819181019795
S1131420F1F79E01215C3F4FF901918380838CE0A9
S11314300E94850C80E090E0A0E8BFE38D879E8742
S1131440AF87B88B20E030E04AE753E46D857E85B2
S11314508F8598890E948914DC01CB018DA79EA7F2
S1131460AFA7B8AB20E030E040E85FE36DA57EA510
S11314708FA598A90E942C1388232CF481E090E076
S11314809AAB89AB3FC020E03FEF4FE757E46DA52F
S11314907EA58FA598A90E94841418164CF520E007
S11314A030E040E251E46D857E858F8598890E9405
S11314B08914DC01CB01BC01CD010E94A313DC0122
S11314C0CB019AAB89AB0FC089E190E09CAB8BABAD
S11314D08BA99CA90197F1F79CAB8BAB89A99AA91D
S11314E001979AAB89AB89A99AA9892B69F714C08A
S11314F06DA57EA58FA598A90E94A313DC01CB013D
S11315009AAB89AB89A99AA99EAB8DAB8DA99EA9EB
S11315100197F1F79EAB8DAB81E00E94850C80E0D2
S113152090E0A0E2B1E4898B9A8BAB8BBC8B20E07A
S113153030E04AE753E469897A898B899C890E945F
S11315408914DC01CB018BA39CA3ADA3BEA320E033
S113155030E040E85FE36BA17CA18DA19EA10E94D5
S11315602C1388232CF481E090E098A78FA33FC02C
S113157020E03FEF4FE757E46BA17CA18DA19EA132
S11315800E94841418164CF520E030E040E251E447
S113159069897A898B899C890E948914DC01CB0131
S11315A0BC01CD010E94A313DC01CB0198A78FA33A
S11315B00FC089E190E09AA789A789A59AA5019708
S11315C0F1F79AA789A78FA198A5019798A78FA348
S11315D08FA198A5892B69F714C06BA17CA18DA15B
S11315E09EA10E94A313DC01CB0198A78FA38FA116
S11315F098A59CA78BA78BA59CA50197F1F79CA701
S11316008BA786E00E94850C80E090E0A0E8BFE311
S11316108D8B9E8BAF8BB88F20E030E04AE753E48C
S11316206D897E898F89988D0E948914DC01CB0194
S1131630898F9A8FAB8FBC8F20E030E040E85FE366
S1131640698D7A8D8B8D9C8D0E942C1388232CF4AC
S113165081E090E09E8F8D8F3FC020E03FEF4FE709
S113166057E4698D7A8D8B8D9C8D0E948414181695
S11316704CF520E030E040E251E46D897E898F89A9
S1131680988D0E948914DC01CB01BC01CD010E941C
S1131690A313DC01CB019E8F8D8F0FC089E190E0F5
S11316A098A38F8F8F8D98A10197F1F798A38F8FAF
S11316B08D8D9E8D01979E8F8D8F8D8D9E8D892B07
S11316C069F714C0698D7A8D8B8D9C8D0E94A3134C
S11316D0DC01CB019E8F8D8F8D8D9E8D9AA389A366
S11316E089A19AA10197F1F79AA389A30000CC5A82
S11316F0DF4F0FB6F894DEBF0FBECDBFDF91CF91A1
S11317001F910F910895CF93DF93CDB7DEB76C97F8
S11317100FB6F894DEBF0FBECDBF41E063E081E4B5
S11317200E94E10F80E090E0A0E0B0E489839A8316
S1131730AB83BC8320E030E04AE753E469817A81DB
S11317408B819C810E948914DC01CB018B8B9C8B47
S1131750AD8BBE8B20E030E040E85FE36B897C8991
S11317608D899E890E942C1388232CF481E090E0BB
S1131770988F8F8B3FC020E03FEF4FE757E46B8992
S11317807C898D899E890E94841418164CF520E06A
S113179030E040E251E469817A818B819C810E942E
S11317A08914DC01CB01BC01CD010E94A313DC012F
S11317B0CB01988F8F8B0FC089E190E09A8F898F2E
S11317C0898D9A8D0197F1F79A8F898F8F89988DDA
S11317D00197988F8F8B8F89988D892B69F714C007
S11317E06B897C898D899E890E94A313DC01CB01BE
S11317F0988F8F8B8F89988D9C8F8B8F8B8D9C8DE1
S11318000197F1F79C8F8B8F40E063E081E40E94A5
S1131810E10F80E090E0A0E0B0E48D839E83AF838D
S1131820B88720E030E04AE753E46D817E818F8100
S113183098850E948914DC01CB0189879A87AB873C
S1131840BC8720E030E040E85FE369857A858B85DA
S11318509C850E942C1388232CF481E090E09E87C1
S11318608D873FC020E03FEF4FE757E469857A85D5
S11318708B859C850E94841418164CF520E030E07A
S113188040E251E46D817E818F8198850E948914A4
S1131890DC01CB01BC01CD010E94A313DC01CB010F
S11318A09E878D870FC089E190E0988B8F878F8505
S11318B098890197F1F7988B8F878D859E8501977D
S11318C09E878D878D859E85892B69F714C06985D0
S11318D07A858B859C850E94A313DC01CB019E87AE
S11318E08D878D859E859A8B898B89899A890197A5
S11318F0F1F79A8B898B00006C960FB6F894DEBFD3
S11319000FBECDBFDF91CF910895CF93DF93CDB7B5
S1131910DEB72F970FB6F894DEBF0FBECDBF8F870B
S11319208F8582958F70682F84E40E94321140E085
S113193061E081E40E94E10F0E94830B6F8584E4DF
S11319400E94321140E061E081E40E94E10F0E94B4
S1131950830B80E090E0A0E8BFE389839A83AB83A4
S1131960BC8320E030E04AE753E469817A818B81CB
S11319709C810E948914DC01CB018D839E83AF83FB
S1131980B88720E030E040E85FE36D817E818F819D
S113199098850E942C1388232CF481E090E09A8788
S11319A089873FC020E03FEF4FE757E46D817E8198
S11319B08F8198850E94841418164CF520E030E03D
S11319C040E251E469817A818B819C810E9489146F
S11319D0DC01CB01BC01CD010E94A313DC01CB01CE
S11319E09A8789870FC089E190E09C878B878B85D4
S11319F09C850197F1F79C878B8789859A85019748
S1131A009A87898789859A85892B69F714C06D819E
S1131A107E818F8198850E94A313DC01CB019A8774
S1131A20898789859A859E878D878D859E8501976F
S1131A30F1F79E878D8700002F960FB6F894DEBFCE
S1131A400FBECDBFDF91CF910895CF93DF93CDB774
S1131A50DEB72F970FB6F894DEBF0FBECDBF8F87CA
S1131A608F8582958F70682F84E40E94321141E043
S1131A7061E081E40E94E10F0E94830B6F8584E49E
S1131A800E94321141E061E081E40E94E10F0E9472
S1131A90830B80E090E0A0E8BFE389839A83AB8363
S1131AA0BC8320E030E04AE753E469817A818B818A
S1131AB09C810E948914DC01CB018D839E83AF83BA
S1131AC0B88720E030E040E85FE36D817E818F815C
S1131AD098850E942C1388232CF481E090E09A8747
S1131AE089873FC020E03FEF4FE757E46D817E8157
S1131AF08F8198850E94841418164CF520E030E0FC
S1131B0040E251E469817A818B819C810E9489142D
S1131B10DC01CB01BC01CD010E94A313DC01CB018C
S1131B209A8789870FC089E190E09C878B878B8592
S1131B309C850197F1F79C878B8789859A85019706
S1131B409A87898789859A85892B69F714C06D815D
S1131B507E818F8198850E94A313DC01CB019A8733
S1131B60898789859A859E878D878D859E8501972E
S1131B70F1F79E878D8700002F960FB6F894DEBF8D
S1131B800FBECDBFDF91CF910895CF93DF9300D0E7
S1131B90CDB7DEB79A8389831092D90011C08091A2
S1131BA0D900882F90E029813A81820F931FFC018C
S1131BB080810E94250D8091D9008F5F8093D90088
S1131BC08091D900882F90E029813A81820F931F58
S1131BD0FC018081882319F700000F900F90DF919A
S1131BE0CF910895CF93DF93CDB7DEB761970FB64A
S1131BF0F894DEBF0FBECDBF888B698B19828889AC
S1131C00833048F48889882331F08989813118F434
S1131C108989882319F480E889830DC088898130F3
S1131C2021F489898158898306C08889823019F40E
S1131C3089898154898389810E94850C80E090E0A0
S1131C40A0E8BFE38A839B83AC83BD8320E030E0BC
S1131C504AE753E46A817B818C819D810E948914C7
S1131C60DC01CB018E839F83A887B98720E030E015
S1131C7040E85FE36E817F81888599850E942C13FB
S1131C8088232CF481E090E09B878A873FC020E082
S1131C903FEF4FE757E46E817F81888599850E94E5
S1131CA0841418164CF520E030E040E251E46A81D7
S1131CB07B818C819D810E948914DC01CB01BC0154
S1131CC0CD010E94A313DC01CB019B878A870FC03F
S1131CD089E190E09D878C878C859D850197F1F73C
S1131CE09D878C878A859B8501979B878A878A85B0
S1131CF09B85892B69F714C06E817F8188859985BE
S1131D000E94A313DC01CB019B878A878A859B856C
S1131D109F878E878E859F850197F1F79F878E8792
S1131D20000061960FB6F894DEBF0FBECDBFDF9101
S1131D30CF910895CF93DF93CDB7DEB787E290E0DC
S1131D40FC01108287E290E027E230E0F901208173
S1131D502064FC01208386E290E027E8FC012083D4
S1131D600000DF91CF910895CF93DF93CDB7DEB715
S1131D7086E290E026E230E0F90120812064FC0153
S1131D802083000086E290E0FC018081882F90E0AF
S1131D9080749927892BB1F784E290E0FC0180815B
S1131DA09181CC01A0E0B0E0BC01CD01DF91CF91E5
S1131DB00895CF93DF9300D000D0CDB7DEB7698309
S1131DC07A838B839C8369817A818B819C810E9435
S1131DD0D213DC01CB012AE038E240EA5BE3BC0128
S1131DE0CD010E948914DC01CB01BC01CD010E940C
S1131DF0A313DC01CB010F900F900F900F90DF9194
S1131E00CF910895CF93DF9300D01F92CDB7DEB763
S1131E1089836A834B838981882F90E0823491057A
S1131E2009F43EC08334910524F48134910551F0C2
S1131E30C1C08334910509F461C08434910509F467
S1131E408BC0B8C08B818130A9F48AE390E02AE387
S1131E5030E0F9012081622F2A81422F50E021E0F5
S1131E6030E002C0220F331F4A95E2F7262BFC0113
S1131E702083A0C08AE390E02AE330E0F9012081C6
S1131E80622F2A81422F50E021E030E002C0220F6D
S1131E90331F4A95E2F720952623FC0120838AC04C
S1131EA08B818130A9F487E390E027E330E0F901E6
S1131EB02081622F2A81422F50E021E030E002C0CD
S1131EC0220F331F4A95E2F7262BFC01208372C0B0
S1131ED087E390E027E330E0F9012081622F2A8133
S1131EE0422F50E021E030E002C0220F331F4A9518
S1131EF0E2F720952623FC0120835CC08B8181308E
S1131F00A9F484E390E024E330E0F9012081622F16
S1131F102A81422F50E021E030E002C0220F331F1B
S1131F204A95E2F7262BFC01208344C084E390E029
S1131F3024E330E0F9012081622F2A81422F50E00E
S1131F4021E030E002C0220F331F4A95E2F72095CA
S1131F502623FC0120832EC08B818130A9F481E3E8
S1131F6090E021E330E0F9012081622F2A81422FA1
S1131F7050E021E030E002C0220F331F4A95E2F71F
S1131F80262BFC01208315C081E390E021E330E09F
S1131F90F9012081622F2A81422F50E021E030E0B4
S1131FA002C0220F331F4A95E2F720952623FC0135
S1131FB02083000000000F900F900F90DF91CF91CD
S1131FC00895CF93DF9300D01F92CDB7DEB78983F6
S1131FD06A834B838981882F90E08234910509F4C8
S1131FE03EC08334910524F48134910551F0C1C07D
S1131FF08334910509F461C08434910509F48BC0DC
S1132000B8C08B818130A9F48BE390E02BE330E0FE
S1132010F9012081622F2A81422F50E021E030E033
S113202002C0220F331F4A95E2F7262BFC012083BE
S1132030A0C08BE390E02BE330E0F9012081622F14
S11320402A81422F50E021E030E002C0220F331FEA
S11320504A95E2F720952623FC0120838AC08B81D0
S11320608130A9F488E390E028E330E0F90120818D
S1132070622F2A81422F50E021E030E002C0220F7B
S1132080331F4A95E2F7262BFC01208372C088E3B4
S113209090E028E330E0F9012081622F2A81422F69
S11320A050E021E030E002C0220F331F4A95E2F7EE
S11320B020952623FC0120835CC08B818130A9F408
S11320C085E390E025E330E0F9012081622F2A8145
S11320D0422F50E021E030E002C0220F331F4A9526
S11320E0E2F7262BFC01208344C085E390E025E33E
S11320F030E0F9012081622F2A81422F50E021E053
S113210030E002C0220F331F4A95E2F720952623C0
S1132110FC0120832EC08B818130A9F482E390E0FE
S113212022E330E0F9012081622F2A81422F50E01E
S113213021E030E002C0220F331F4A95E2F7262B3C
S1132140FC01208315C082E390E022E330E0F90132
S11321502081622F2A81422F50E021E030E002C02A
S1132160220F331F4A95E2F720952623FC01208392
S1132170000000000F900F900F90DF91CF91089511
S1132180CF93DF9300D0CDB7DEB789836A8389818B
S1132190882F90E082349105A1F08334910524F4D2
S11321A08134910541F01FC08334910581F084345A
S11321B0910599F018C08AE390E02A81FC012083FC
S11321C012C087E390E02A81FC0120830CC084E3E1
S11321D090E02A81FC01208306C081E390E02A81FB
S11321E0FC012083000000000F900F90DF91CF913D
S11321F00895CF93DF9300D0CDB7DEB789836A8388
S11322008981882F90E082349105A1F0833491056F
S113221024F48134910541F01FC08334910581F089
S11322208434910599F018C08BE390E02A81FC0175
S1132230208312C088E390E02A81FC0120830CC033
S113224085E390E02A81FC01208306C082E390E0CC
S11322502A81FC012083000000000F900F90DF9181
S1132260CF910895CF93DF9300D0CDB7DEB78983A4
S11322706A838A818295807F8A838981882F90E00E
S11322808234910511F18334910524F4813491054C
S113229041F057C08334910561F184349105E9F12B
S11322A050C08BE390E02BE330E0F90120812F70E4
S11322B0FC0120838BE390E02BE330E0F9013081D3
S11322C02A81232BFC0120833CC088E390E028E38F
S11322D030E0F90120812F70FC01208388E390E035
S11322E028E330E0F90130812A81232BFC0120838B
S11322F028C085E390E025E330E0F90120812F70C8
S1132300FC01208385E390E025E330E0F90130818E
S11323102A81232BFC01208314C082E390E022E372
S113232030E0F90120812F70FC01208382E390E0EA
S113233022E330E0F90130812A81232BFC01208340
S1132340000000000F900F90DF91CF910895CF937C
S1132350DF93CDB7DEB787E390E020EBFC01208369
S11323608DE290E02DE230E0F90120812061FC0152
S113237020838DE290E02DE230E0F901208121609C
S1132380FC0120838DE290E02DE230E0F901208110
S11323902260FC0120838DE290E02DE230E0F9011F
S11323A020812460FC0120838DE290E02DE230E066
S11323B0F90120812064FC0120838DE290E02DE26C
S11323C030E0F90120812068FC0120830000DF91C6
S11323D0CF910895CF93DF931F92CDB7DEB7898352
S11323E08FE290E02981FC01208300008EE290E0DE
S11323F0FC0180818823D4F700000F90DF91CF91F6
S11324000895CF93DF93CDB7DEB700008EE290E05E
S1132410FC0180818823D4F78FE290E0FC01808165
S1132420DF91CF910895CF93DF93CDB7DEB72E9789
S11324300FB6F894DEBF0FBECDBF88E390E028E36B
S113244030E0F90120812061FC01208380E80E94B2
S1132450EA1180E40E94EA1188E390E028E330E086
S1132460F90120812F7EFC01208380E090E0A6E129
S1132470B3E489839A83AB83BC8320E030E04AE7EA
S113248053E469817A818B819C810E948914DC01E7
S1132490CB018D839E83AF83B88720E030E040E892
S11324A05FE36D817E818F8198850E942C13882340
S11324B02CF481E090E09A8789873FC020E03FEFC9
S11324C04FE757E46D817E818F8198850E94841443
S11324D018164CF520E030E040E251E469817A813D
S11324E08B819C810E948914DC01CB01BC01CD014C
S11324F00E94A313DC01CB019A8789870FC089E16D
S113250090E09C878B878B859C850197F1F79C874E
S11325108B8789859A8501979A87898789859A8582
S1132520892B69F714C06D817E818F8198850E9403
S1132530A313DC01CB019A87898789859A859E87B5
S11325408D878D859E850197F1F79E878D87000085
S11325502E960FB6F894DEBF0FBECDBFDF91CF919C
S11325600895CF93DF93CDB7DEB70E94BE060E94D5
S1132570490061E081E00E944A067894FFCF5058F8
S1132580BB27AA270E94D7120C944A140E943C1419
S113259038F00E94431420F039F49F3F19F426F4D4
S11325A00C9439140EF4E095E7FB0C943314E92FE2
S11325B00E945B1458F3BA176207730784079507E0
S11325C020F079F4A6F50C947D140EF4E0950B2E0E
S11325D0BA2FA02D0B01B90190010C01CA01A00171
S11325E01124FF27591B99F0593F50F4503E68F1CC
S11325F01A16F040A22F232F342F4427585FF3CF0D
S1132600469537952795A795F0405395C9F77EF4DD
S11326101F16BA0B620B730B840BBAF09150A1F026
S1132620FF0FBB1F661F771F881FC2F70EC0BA0FAC
S1132630621F731F841F48F4879577956795B79534
S1132640F7959E3F08F0B0CF9395880F08F099272F
S1132650EE0F9795879508950E940F1408F481E072
S113266008950E9445130C944A140E94431458F090
S11326700E943C1440F029F45F3F29F00C94331479
S113268051110C947E140C9439140E945B1468F359
S11326909923B1F3552391F3951B550BBB27AA2717
S11326A062177307840738F09F5F5F4F220F331F51
S11326B0441FAA1FA9F335D00E2E3AF0E0E832D019
S11326C091505040E695001CCAF72BD0FE2F29D01C
S11326D0660F771F881FBB1F261737074807AB07EE
S11326E0B0E809F0BB0B802DBF01FF2793585F4F63
S11326F03AF09E3F510578F00C9433140C947E14F8
S11327005F3FE4F3983ED4F3869577956795B79544
S1132710F7959F5FC9F7880F911D9695879597F94F
S11327200895E1E0660F771F881FBB1F62177307C8
S11327308407BA0720F0621B730B840BBA0BEE1FDD
S113274088F7E09508950E94631488F09F5798F0E5
S1132750B92F9927B751B0F0E1F0660F771F881FA2
S1132760991F1AF0BA95C9F714C0B13091F00E94BC
S11327707D14B1E008950C947D14672F782F882779
S1132780B85F39F0B93FCCF3869577956795B395E3
S1132790D9F73EF490958095709561957F4F8F4F52
S11327A09F4F0895E89409C097FB3EF49095809557
S11327B0709561957F4F8F4F9F4F9923A9F0F92F03
S11327C096E9BB279395F695879577956795B79581
S11327D0F111F8CFFAF4BB0F11F460FF1BC06F5F67
S11327E07F4F8F4F9F4F16C0882311F096E911C079
S11327F0772321F09EE8872F762F05C0662371F09A
S113280096E8862F70E060E02AF09A95660F771FAD
S1132810881FDAF7880F9695879597F90895990F89
S11328200008550FAA0BE0E8FEEF16161706E80796
S1132830F907C0F012161306E407F50798F0621BB7
S1132840730B840B950B39F40A2661F0232B242B8C
S1132850252B21F408950A2609F4A140A6958FEFAB
S1132860811D811D089597F99F6780E870E060E0FD
S113287008959FEF80EC089500240A941616170615
S113288018060906089500240A941216130614065D
S113289005060895092E0394000C11F4882352F0C0
S11328A0BB0F40F4BF2B11F460FF04C06F5F7F4F78
S11328B08F4F9F4F089557FD9058440F551F59F05F
S11328C05F3F71F04795880F97FB991F61F09F3F19
S11328D079F087950895121613061406551FF2CF42
S11328E04695F1DF08C0161617061806991FF1CF92
S11328F086957105610508940895E894BB276627B9
S11329007727CB0197F908950E940F1408F48FEFED
S113291008950E949C140C944A140E943C1438F0AC
S11329200E94431420F0952311F00C9433140C945A
S1132930391411240C947E140E945B1470F3959F37
S1132940C1F3950F50E0551F629FF001729FBB27A2
S1132950F00DB11D639FAA27F00DB11DAA1F649F3E
S11329606627B00DA11D661F829F2227B00DA11DF1
S1132970621F739FB00DA11D621F839FA00D611D77
S1132980221F749F3327A00D611D231F849F600D98
S1132990211D822F762F6A2F11249F5750409AF0C1
S11329A0F1F088234AF0EE0FFF1FBB1F661F771F4D
S11329B0881F91505040A9F79E3F510580F00C9418
S11329C033140C947E145F3FE4F3983ED4F386955D
S11329D077956795B795F795E7959F5FC1F7FE2BB8
S11329E0880F911D9695879597F90895A29FB00138
S11329F0B39FC001A39F700D811D1124911DB29F2F
S1132A00700D811D1124911D0895FC0188279927BB
S1132A10E89421912032E9F3293010F02E30C8F3E4
S1132A202B3241F02D3239F4689404C00E943915D8
S1132A30820F911D219120532A30C0F31EF49095EA
S1132A4081959F4F08954532510520F4423010F08E
S1132A500C942E15FB011082CB010895BB274A303C
S1132A6031F4992322F4BDE2909581959F4F0C9403
S1132A7042157AE0979F902D879F802D910D112408
S1132A800895BB27FB015527AA27880F991FAA1F62
S1132A90A41710F0A41B83955051B9F7A05DAA3375
S1132AA008F0A95DA193009779F7B111B193119240
S1132AB0CB010C945B15DC01FC01672F719177232A
S1132AC0E1F7329704C07C916D9370836291AE17E5
S10D2AD0BF07C8F30895F894FFCF80
S1132ADA57454C434F4D45005345543A323500430C
S1132AEA52543A0053544154453A5354414E444281
S1132AFA590053544154453A4F5045524154494F51
S1132B0A4E0053544154453A4E4F524D414C005392
S1132B1A544154453A4552524F52000531323334E6
S10B2B2A35363738392A30230F
S9030000FC
