S00C00006D61696E2E7372656373
S11300000C942A000C9447000C9447000C9447006D
S11300100C9447000C9447000C9447000C94470040
S11300200C9447000C9447000C9447000C94470030
S11300300C9447000C9447000C9447000C94470020
S11300400C9447000C9447000C9447000C94470010
S11300500C94470011241FBECFE5D8E0DEBFCDBF0E
S113006010E0A0E6B0E0E2E4F6E002C005900D92F4
S1130070A238B107D9F720E0A2E8B0E001C01D9290
S1130080A438B207E1F70E94D7020C941F030C9422
S113009000000E9413020E94D2010E94E8020E9402
S11300A001032FEF82E597E0215080409040E1F773
S11300B000C00000089561E081E00E949B0281E09D
S11300C08093820019C00E94910240E650E0609142
S11300D0820081E00E94BD022FEF81EE94E0215066
S11300E080409040E1F700C000000E94910280919E
S11300F082008F5F8093820080918200803118F3A8
S113010080E18093820019C00E94910240E650E091
S11301106091820081E00E94BD022FEF81EE94E0A5
S1130120215080409040E1F700C000000E949102FD
S1130130809182008150809382008091820081119D
S1130140E3CF2FEF84E39CE0215080409040E1F71F
S113015000C000000E94910208952FEF89EF90E003
S1130160215080409040E1F700C0000048E650E094
S113017061E081E00E94BD024FE650E06BE081E067
S11301800E94BD0244E750E061E082E00E94BD02AB
S11301900895823419F118F4813439F008958334C0
S11301A0B1F1843409F44CC00895413059F42AB3B0
S11301B081E090E002C0880F991F6A95E2F7822BD4
S11301C08ABB08952AB381E090E002C0880F991F8A
S11301D06A95E2F7809582238ABB0895413059F4E9
S11301E027B381E090E002C0880F991F6A95E2F777
S11301F0822B87BB089527B381E090E002C0880F6B
S1130200991F6A95E2F78095822387BB0895413050
S113021059F424B381E090E002C0880F991F6A95D5
S1130220E2F7822B84BB089524B381E090E002C0FE
S1130230880F991F6A95E2F78095822384BB0895FD
S1130240413059F421B381E090E002C0880F991F36
S11302506A95E2F7822B81BB089521B381E090E097
S113026002C0880F991F6A95E2F78095822381BBAB
S11302700895823419F118F4813439F008958334DF
S1130280B1F1843409F44CC00895413059F42BB3CE
S113029081E090E002C0880F991F6A95E2F7822BF3
S11302A08BBB08952BB381E090E002C0880F991FA7
S11302B06A95E2F7809582238BBB0895413059F407
S11302C028B381E090E002C0880F991F6A95E2F795
S11302D0822B88BB089528B381E090E002C0880F88
S11302E0991F6A95E2F78095822388BB089541306F
S11302F059F425B381E090E002C0880F991F6A95F4
S1130300E2F7822B85BB089525B381E090E002C01B
S1130310880F991F6A95E2F78095822385BB08951B
S1130320413059F422B381E090E002C0880F991F54
S11303306A95E2F7822B82BB089522B381E090E0B4
S113034002C0880F991F6A95E2F78095822382BBC9
S113035008956295607F823481F018F4813431F01D
S11303600895833489F08434B1F008958BB38F7089
S11303708BBB8BB3682B6BBB089588B38F7088BB22
S113038088B3682B68BB089585B38F7085BB85B32C
S1130390682B65BB089582B38F7082BB82B3682BD0
S11303A062BB08958FE084BB80B78B7F80BF8FEFE3
S11303B085BB089541E060E081E40E94390183EF48
S11303C091E00197F1F700C0000040E060E081E4B3
S11303D00E94390183EF91E00197F1F700C000001A
S11303E00895CF93C82F682F62956F7084E40E949C
S11303F0A90140E061E081E40E9439010E94DA0130
S11304006C2F84E40E94A90140E061E081E40E9431
S113041039010E94DA0189EF90E00197F1F700C0F9
S11304200000CF91089587E893E10197F1F700C0A8
S1130430000041E064E084E40E94C90041E065E01A
S113044084E40E94C90041E066E084E40E94C9009B
S113045041E067E084E40E94C90041E060E081E497
S11304600E94C90041E062E081E40E94C90041E0C9
S113047061E081E40E94C90040E062E081E40E94FE
S1130480390182E00E94F10183EC99E00197F1F7D0
S113049000C0000088E20E94F10189EF90E001971A
S11304A0F1F700C000008EE00E94F10189EF90E0B6
S11304B00197F1F700C0000081E00E94F10183EC94
S11304C099E00197F1F700C0000086E00E94F10175
S11304D089EF90E00197F1F700C000000895CF93F1
S11304E0C82F682F62956F7084E40E94A90141E0CF
S11304F061E081E40E9439010E94DA016C2F84E4F6
S11305000E94A90141E061E081E40E9439010E9456
S1130510DA0189EF90E00197F1F700C00000CF9174
S1130520089581E00E94F10183EC99E00197F1F7CD
S113053000C0000008959FEF980F923070F461316D
S113054070F4662371F0813019F48FE7860F0CC0C4
S1130550823049F48FEB860F07C080E805C080E83D
S113056003C080E801C080E00E94F10189EF90E0BF
S11305700197F1F700C000000895CF93DF93EA01DB
S11305800E949B021092830007C00E946F02809118
S113059083008F5F8093830080918300FE01E80FC6
S11305A0F11D80818111F1CFDF91CF9108950E94D7
S11305B049000E945B000E94AD0081E40E946F022A
S11305C00E94140382E40E946F020E941403F5CF78
S11305D080EB87BB8DB180618DB98DB181608DB9A0
S11305E08DB182608DB98DB184608DB98DB1806417
S11305F08DB98DB180688DB908958FB9779BFECF81
S1130600089588B3806188BB80E80E94FD0284E07D
S11306100E94FD0288B38F7E88BB8BE792E9019725
S1130620F1F700C00000089585E083BF84E682BF2F
S113063008B600FEFDCF13BE81E088BF0895F8948C
S1050640FFCFE6
S113064257454C434F4D45005345543A32350043C8
S113065252543A0053544154453A5354414E44423D
S1050662590039
S9030000FC
