S00C00006D61696E2E7372656373
S11300000C942A000C9447000C9447000C9447006D
S11300100C9497010C9447000C9447000C944700EF
S11300200C9447000C9447000C9447000C94470030
S11300300C9447000C9447000C9447000C94470020
S11300400C9447000C9447000C9447000C94470010
S11300500C94470011241FBECFE5D8E0DEBFCDBF0E
S113006010E0A0E6B0E0ECE8FCE002C005900D92E0
S1130070A03AB107D9F720E0A0EAB0E001C01D9290
S1130080AD3AB207E1F70E94EF040C9444060C94D5
S113009000000E94C0020E942F020E94BF040E941E
S11300A0DC042FEF82E597E0215080409040E1F797
S11300B000C000000E949C0308958CE00E949E02F0
S11300C061E081E00E94600381E08093A00019C098
S11300D00E94560341E650E06091A00081E00E9436
S11300E082032FEF81EE94E0215080409040E1F7AD
S11300F000C000000E9456038091A0008F5F80938F
S1130100A0008091A000803118F380E18093A000CA
S113011019C00E94560341E650E06091A00081E0BE
S11301200E9482032FEF81EE94E0215080409040A2
S1130130E1F700C000000E9456038091A0008150A6
S11301408093A0008091A0008111E3CF2FEF84E37E
S11301509CE0215080409040E1F700C000000E94E4
S1130160560308952FEF89EF90E02150804090408E
S1130170E1F700C0000049E650E061E081E00E9440
S1130180820340E750E06BE081E00E94820345E790
S113019050E061E082E00E948203089588B38061A8
S11301A088BB82E00E94D40480E00E94D40488B317
S11301B08F7E88BB8FE99FE00197F1F700C00000B4
S11301C00E94D8040895CF93DF9300D0CDB7DEB753
S11301D00E94CE004AE050E0BE016F5F7F4F90E086
S11301E00E9404066FE081E00E946003CE01019644
S11301F00E943E03EDCF43E850E061E082E00E94BC
S113020082030E94E3006091600081E00E94600329
S11302100E9477028A32A9F0833299F00E941C036B
S11302202FEF81EE94E0215080409040E1F700C030
S11302300000809160008F5F809360000E94030142
S113024008950E94FB000E94A3030E94AD03089539
S113025081E08093A400089581E08093A300089531
S113026081E08093A200089581E08093A100089525
S11302701092A4001092A6001092A5001092A7005C
S113028008951092A30008951092A2000895109268
S1130290A10008954091A8005091A9004F5F5F4FBD
S11302A05093A9004093A8009A0136952795ABE78F
S11302B0B4E10E94F5059695879562E3689F9001E5
S11302C0699F300D11244217530711F00E94C10198
S11302D09091A7008BEA989F812D11248695282F51
S11302E0220F820F981729F08091A10081110E949A
S11302F0BB018091A400882349F08091A5009091CE
S1130300A60001969093A6008093A5008091A50075
S11303109091A60080369A4E48F01092A600109252
S1130320A5008091A7008F5F8093A70008951F9276
S11303300F920FB60F9211242F933F934F935F9315
S11303406F937F938F939F93AF93BF93EF93FF9399
S11303500E944A01FF91EF91BF91AF919F918F91BC
S11303607F916F915F914F913F912F910F900FBEAD
S11303700F901F90189581E08093AA000895089526
S113038008950F931F93CF938091AB00813069F050
S113039038F0823009F456C0833009F458C05BC089
S11303A00E9444010E94410156C00E942C010E94F7
S11303B030010E94BF018C01C82F0E94C001282F68
S11303C0801778F4A8015527481B51094630510578
S11303D044F482E08093AB000E9438010E944701FC
S11303E029C0C21778F4AC015527401B5109463087
S11303F0510544F482E08093AB000E9438010E94CE
S1130400470118C02C1758F4A8015527481B510957
S11304104B30510524F083E08093AB000BC0C2172E
S113042048F49927801B9109069724F00E9428011B
S11304300E9434018091AA00882369F083E08093AC
S1130440AB0009C00E942C010E94440104C00E9418
S113045041010E944401CF911F910F9108958FE0B3
S113046084BB80B78B7F80BF8FEF85BB089580E00E
S113047070E03AC095B39F6095BB95B3A72FB0E0E9
S113048021E030E0072E02C0220F331F0A94E2F766
S11304902095292325BB94E024C063B3E92FF0E021
S11304A021E030E0A901092E02C0440F551F0A942F
S11304B0E2F7262F30E024233523092E02C0359598
S11304C027950A94E2F721110BC034979D01220F5E
S11304D0331F2A0F3B1F2D563F4FE20FF31F80811E
S11304E09F5F9730D0F27F5F743020F2089506C08A
S11304F083EC99E00197F1F700C000000E943702F5
S11305008111F6CF0E9437028823E1F3089541E078
S113051060E081E40E94260483EF91E00197F1F703
S113052000C0000040E060E081E40E94260483EF04
S113053091E00197F1F700C000000895CF93C82F10
S1130540682F62956F7084E40E94960440E061E035
S113055081E40E9426040E9487026C2F84E40E9496
S1130560960440E061E081E40E9426040E94870230
S113057089EF90E00197F1F700C00000CF91089552
S113058087E893E10197F1F700C0000041E064E0DF
S113059084E40E94B60341E065E084E40E94B6036B
S11305A041E066E084E40E94B60341E067E084E44D
S11305B00E94B60341E060E081E40E94B60341E09A
S11305C062E081E40E94B60341E061E081E40E94BC
S11305D0B60340E062E081E40E94260482E00E94C7
S11305E09E0283EC99E00197F1F700C0000088E2D5
S11305F00E949E0289EF90E00197F1F700C000008D
S11306008CE00E949E0289EF90E00197F1F700C010
S1130610000081E00E949E0283EC99E00197F1F7CB
S113062000C0000086E00E949E0289EF90E00197DE
S1130630F1F700C000000895CF93C82F682F62958A
S11306406F7084E40E94960441E061E081E40E94BA
S113065026040E9487026C2F84E40E94960441E0E1
S113066061E081E40E9426040E94870289EF90E001
S11306700197F1F700C00000CF910895CF93DF9365
S1130680EC011092AC0007C00E941C038091AC00E6
S11306908F5F8093AC008091AC00FE01E80FF11DE8
S11306A080818111F1CFDF91CF91089581E00E9483
S11306B09E0283EC99E00197F1F700C000000895D1
S11306C09FEF980F923070F4613170F4662371F0EB
S11306D0813019F48FE7860F0CC0823049F48FEB18
S11306E0860F07C080E805C080E803C080E801C029
S11306F080E00E949E0289EF90E00197F1F700C02C
S113070000000895CF93DF93EA010E9460031092E2
S1130710AC0007C00E941C038091AC008F5F8093E3
S1130720AC008091AC00FE01E80FF11D80818111C5
S1130730F1CFDF91CF91089517B887B1806487B95D
S113074087E886B9089586B1806486B93699FECF64
S113075064B175B180E090E008950E94FA042AE043
S113076038E240EA5BE30E9488050895823419F177
S113077018F4813439F008958334B1F1843409F4E0
S11307804CC00895413059F42AB381E090E002C08E
S1130790880F991F6A95E2F7822B8ABB08952AB3C2
S11307A081E090E002C0880F991F6A95E2F7809576
S11307B082238ABB0895413059F427B381E090E045
S11307C002C0880F991F6A95E2F7822B87BB0895B0
S11307D027B381E090E002C0880F991F6A95E2F781
S11307E08095822387BB0895413059F424B381E076
S11307F090E002C0880F991F6A95E2F7822B84BBB0
S1130800089524B381E090E002C0880F991F6A958F
S1130810E2F78095822384BB0895413059F421B3D3
S113082081E090E002C0880F991F6A95E2F7822B5D
S113083081BB089521B381E090E002C0880F991F25
S11308406A95E2F78095822381BB0895823419F179
S113085018F4813439F008958334B1F1843409F4FF
S11308604CC00895413059F42BB381E090E002C0AC
S1130870880F991F6A95E2F7822B8BBB08952BB3DF
S113088081E090E002C0880F991F6A95E2F7809595
S113089082238BBB0895413059F428B381E090E062
S11308A002C0880F991F6A95E2F7822B88BB0895CE
S11308B028B381E090E002C0880F991F6A95E2F79F
S11308C08095822388BB0895413059F425B381E093
S11308D090E002C0880F991F6A95E2F7822B85BBCE
S11308E0089525B381E090E002C0880F991F6A95AE
S11308F0E2F78095822385BB0895413059F422B3F1
S113090081E090E002C0880F991F6A95E2F7822B7C
S113091082BB089522B381E090E002C0880F991F42
S11309206A95E2F78095822382BB08956295607F81
S1130930823481F018F4813431F00895833489F0DD
S11309408434B1F008958BB38F708BBB8BB3682B59
S11309506BBB089588B38F7088BB88B3682B68BB62
S1130960089585B38F7085BB85B3682B65BB0895E7
S113097082B38F7082BB82B3682B62BB089580EB15
S113098087BB8DB180618DB98DB181608DB98DB119
S113099082608DB98DB184608DB98DB180648DB95B
S11309A08DB180688DB908958FB9779BFECF089576
S11309B0779BFECF8FB1089588B3806188BB80E8B0
S11309C00E94D40480E40E94D40488B38F7E88BB40
S11309D08BE792E90197F1F700C0000008950E94A7
S11309E049000E945D000E94B2000E9403010E941F
S11309F02301FDCFE89409C097FB3EF490958095C0
S1130A00709561957F4F8F4F9F4F9923A9F0F92FD0
S1130A1096E9BB279395F695879577956795B7954E
S1130A20F111F8CFFAF4BB0F11F460FF1BC06F5F34
S1130A307F4F8F4F9F4F16C0882311F096E911C046
S1130A40772321F09EE8872F762F05C0662371F067
S1130A5096E8862F70E060E02AF09A95660F771F7B
S1130A60881FDAF7880F9695879597F9089597F96F
S1130A709F6780E870E060E008959FEF80EC089540
S1130A8000240A9416161706180609060895002469
S1130A900A9412161306140605060895092E0394E3
S1130AA0000C11F4882352F0BB0F40F4BF2B11F457
S1130AB060FF04C06F5F7F4F8F4F9F4F089557FDB6
S1130AC09058440F551F59F05F3F71F04795880FB8
S1130AD097FB991F61F09F3F79F08795089512164F
S1130AE013061406551FF2CF4695F1DF08C01616FB
S1130AF017061806991FF1CF8695710561050894AC
S1130B000895E894BB2766277727CB0197F90895C2
S1130B100E949B050C944E050E94400538F00E94EB
S1130B20470520F0952311F00C9437050C943D05EE
S1130B3011240C9482050E945F0570F3959FC1F304
S1130B40950F50E0551F629FF001729FBB27F00D77
S1130B50B11D639FAA27F00DB11DAA1F649F6627CC
S1130B60B00DA11D661F829F2227B00DA11D621F1B
S1130B70739FB00DA11D621F839FA00D611D221FD5
S1130B80749F3327A00D611D231F849F600D211DB9
S1130B90822F762F6A2F11249F5750409AF0F1F03C
S1130BA088234AF0EE0FFF1FBB1F661F771F881FA5
S1130BB091505040A9F79E3F510580F00C943705A1
S1130BC00C9482055F3FE4F3983ED4F386957795C1
S1130BD06795B795F795E7959F5FC1F7FE2B880F4B
S1130BE0911D9695879597F90895A29FB001B39F9B
S1130BF0C001A39F700D811D1124911DB29F700D22
S1130C00811D1124911D08954532510520F442306F
S1130C1010F00C940F06FB011082CB010895BB2742
S1130C204A3031F4992322F4BDE2909581959F4F87
S1130C300C941B06BB27FB015527AA27880F991F75
S1130C40AA1FA41710F0A41B83955051B9F7A05DF7
S1130C50AA3308F0A95DA193009779F7B111B19374
S1130C601192CB010C943406DC01FC01672F7191C5
S1130C707723E1F7329704C07C916D93708362917E
S10F0C80AE17BF07C8F30895F894FFCF27
S1130C8C0557454C434F4D45005345543A323500B6
S1130C9C4352543A0053544154453A5354414E44EC
S1130CAC42590053544154453A4F504552415449CA
S1130CBC4F4E003132333435363738392A3023002D
S9030000FC
