S00C00006D61696E2E7372656373
S11300000C942A000C9447000C9447000C9447006D
S11300100C9447000C9447000C9447000C94470040
S11300200C9447000C9447000C9447000C94470030
S11300300C9447000C9447000C9447000C94470020
S11300400C9447000C9447000C9447000C94470010
S11300500C94470011241FBECFE5D8E0DEBFCDBF0E
S113006010E0A0E6B0E0EAE4F8E002C005900D92EA
S1130070AE39B107D9F720E0AEE9B0E001C01D9276
S1130080A03AB207E1F70E949C030C9423040C9459
S113009000000E94C0020E942F020E94B3030E942B
S11300A0D0032FEF82E597E0215080409040E1F7A4
S11300B000C00000089561E081E00E94600381E0D7
S11300C080939E0019C00E94560340E650E0609160
S11300D09E0081E00E9482032FEF81EE94E0215084
S11300E080409040E1F700C000000E9456038091D8
S11300F09E008F5F80939E0080919E00803118F354
S113010080E180939E0019C00E94560340E650E0AF
S113011060919E0081E00E9482032FEF81EE94E0C3
S1130120215080409040E1F700C000000E94560337
S113013080919E00815080939E0080919E00811149
S1130140E3CF2FEF84E39CE0215080409040E1F71F
S113015000C000000E94560308952FEF89EF90E03D
S1130160215080409040E1F700C0000048E650E094
S113017061E081E00E9482034FE650E06BE081E0A1
S11301800E94820344E750E061E082E00E9482031F
S11301900895CF930E947702C82F833251F42FEF32
S11301A089EF90E0215080409040E1F700C00000CA
S11301B00BC00E941C032FEF89EF90E02150804078
S11301C09040E1F700C000008C2FCF910895CF93A9
S11301D0DF9300D000D0CDB7DEB788B3806188BB91
S11301E081E00E94C80380E00E94C80388B38F7E28
S11301F088BB8FE99FE00197F1F700C000000E94DF
S1130200CC0388B3806188BB82E00E94C80380E08D
S11302100E94C80388B38F7E88BB8FE99FE0019753
S1130220F1F700C000000E94CC034AE050E0BE0198
S11302306F5F7F4F90E00E94E3036FE081E00E94D4
S11302406003CE0101960E943E03C7CF823419F1A8
S113025018F4813439F008958334B1F1843409F405
S11302604CC00895413059F42AB381E090E002C0B3
S1130270880F991F6A95E2F7822B8ABB08952AB3E7
S113028081E090E002C0880F991F6A95E2F780959B
S113029082238ABB0895413059F427B381E090E06A
S11302A002C0880F991F6A95E2F7822B87BB0895D5
S11302B027B381E090E002C0880F991F6A95E2F7A6
S11302C08095822387BB0895413059F424B381E09B
S11302D090E002C0880F991F6A95E2F7822B84BBD5
S11302E0089524B381E090E002C0880F991F6A95B5
S11302F0E2F78095822384BB0895413059F421B3F9
S113030081E090E002C0880F991F6A95E2F7822B82
S113031081BB089521B381E090E002C0880F991F4A
S11303206A95E2F78095822381BB0895823419F19E
S113033018F4813439F008958334B1F1843409F424
S11303404CC00895413059F42BB381E090E002C0D1
S1130350880F991F6A95E2F7822B8BBB08952BB304
S113036081E090E002C0880F991F6A95E2F78095BA
S113037082238BBB0895413059F428B381E090E087
S113038002C0880F991F6A95E2F7822B88BB0895F3
S113039028B381E090E002C0880F991F6A95E2F7C4
S11303A08095822388BB0895413059F425B381E0B8
S11303B090E002C0880F991F6A95E2F7822B85BBF3
S11303C0089525B381E090E002C0880F991F6A95D3
S11303D0E2F78095822385BB0895413059F422B316
S11303E081E090E002C0880F991F6A95E2F7822BA2
S11303F082BB089522B381E090E002C0880F991F68
S11304006A95E2F78095822382BB08956295607FA6
S1130410823481F018F4813431F00895833489F002
S11304208434B1F008958BB38F708BBB8BB3682B7E
S11304306BBB089588B38F7088BB88B3682B68BB87
S1130440089585B38F7085BB85B3682B65BB08950C
S113045082B38F7082BB82B3682B62BB08958FE036
S113046084BB80B78B7F80BF8FEF85BB089580E00E
S113047070E03AC095B39F6095BB95B3A72FB0E0E9
S113048021E030E0072E02C0220F331F0A94E2F766
S11304902095292325BB94E024C063B3E92FF0E021
S11304A021E030E0A901092E02C0440F551F0A942F
S11304B0E2F7262F30E024233523092E02C0359598
S11304C027950A94E2F721110BC034979D01220F5E
S11304D0331F2A0F3B1F2E573F4FE20FF31F80811C
S11304E09F5F9730D0F27F5F743020F2089506C08A
S11304F083EC99E00197F1F700C000000E943702F5
S11305008111F6CF0E9437028823E1F3089541E078
S113051060E081E40E94960183EF91E00197F1F796
S113052000C0000040E060E081E40E94960183EF97
S113053091E00197F1F700C000000895CF93C82F10
S1130540682F62956F7084E40E94060240E061E0C7
S113055081E40E9496010E9487026C2F84E40E9429
S1130560060240E061E081E40E9496010E94870255
S113057089EF90E00197F1F700C00000CF91089552
S113058087E893E10197F1F700C0000041E064E0DF
S113059084E40E94260141E065E084E40E9426018F
S11305A041E066E084E40E94260141E067E084E4DF
S11305B00E94260141E060E081E40E94260141E0BE
S11305C062E081E40E94260141E061E081E40E944E
S11305D0260140E062E081E40E94960182E00E94EC
S11305E09E0283EC99E00197F1F700C0000088E2D5
S11305F00E949E0289EF90E00197F1F700C000008D
S11306008EE00E949E0289EF90E00197F1F700C00E
S1130610000081E00E949E0283EC99E00197F1F7CB
S113062000C0000086E00E949E0289EF90E00197DE
S1130630F1F700C000000895CF93C82F682F62958A
S11306406F7084E40E94060241E061E081E40E944C
S113065096010E9487026C2F84E40E94060241E006
S113066061E081E40E9496010E94870289EF90E094
S11306700197F1F700C00000CF910895CF93DF9365
S1130680EC0110929F0007C00E941C0380919F0000
S11306908F5F80939F0080919F00FE01E80FF11D02
S11306A080818111F1CFDF91CF91089581E00E9483
S11306B09E0283EC99E00197F1F700C000000895D1
S11306C09FEF980F923070F4613170F4662371F0EB
S11306D0813019F48FE7860F0CC0823049F48FEB18
S11306E0860F07C080E805C080E803C080E801C029
S11306F080E00E949E0289EF90E00197F1F700C02C
S113070000000895CF93DF93EA010E9460031092E2
S11307109F0007C00E941C0380919F008F5F8093FD
S11307209F0080919F00FE01E80FF11D80818111DF
S1130730F1CFDF91CF9108950E9449000E945B00A0
S11307400E94AD000E94C9008332E1F74EE850E0F8
S113075061E082E00E94820365E081E00E94600320
S11307600E94E700EFCF80EB87BB8DB180618DB92C
S11307708DB181608DB98DB182608DB98DB1846088
S11307808DB98DB180648DB98DB180688DB90895AE
S11307908FB9779BFECF0895779BFECF8FB10895D5
S11307A088B3806188BB80E80E94C80380E40E940B
S11307B0C80388B38F7E88BB8BE792E90197F1F772
S11307C000C0000008954532510520F4423010F075
S11307D00C94EE03FB011082CB010895BB274A3031
S11307E031F4992322F4BDE2909581959F4F0C94A6
S11307F0FA03BB27FB015527AA27880F991FAA1FB5
S1130800A41710F0A41B83955051B9F7A05DAA3327
S113081008F0A95DA193009779F7B111B1931192F2
S1130820CB010C941304DC01FC01672F7191772335
S1130830E1F7329704C07C916D9370836291AE1797
S10D0840BF07C8F30895F894FFCF32
S113084A57454C434F4D45005345543A32350043BE
S113085A52543A0053544154453A5354414E444233
S113086A59003132333435363738392A3023535420
S111087A4154453A4F5045524154494F4E00A7
S9030000FC
