S00C00006D61696E2E7372656373
S11300000C942A000C9447000C9447000C9447006D
S11300100C9447000C9447000C9447000C94470040
S11300200C9447000C9447000C9447000C94470030
S11300300C9447000C9447000C9447000C94470020
S11300400C9447000C9447000C9447000C94470010
S11300500C94470011241FBECFE5D8E0DEBFCDBF0E
S113006010E0A0E6B0E0E6ECF6E002C005900D92E8
S1130070AC36B107D9F720E0ACE6B0E001C01D9280
S1130080AF36B207E1F70E944F030C9461030C945E
S11300900000823419F118F4813439F0089583345E
S11300A0B1F1843409F44CC00895413059F42AB3B1
S11300B081E090E002C0880F991F6A95E2F7822BD5
S11300C08ABB08952AB381E090E002C0880F991F8B
S11300D06A95E2F7809582238ABB0895413059F4EA
S11300E027B381E090E002C0880F991F6A95E2F778
S11300F0822B87BB089527B381E090E002C0880F6C
S1130100991F6A95E2F78095822387BB0895413051
S113011059F424B381E090E002C0880F991F6A95D6
S1130120E2F7822B84BB089524B381E090E002C0FF
S1130130880F991F6A95E2F78095822384BB0895FE
S1130140413059F421B381E090E002C0880F991F37
S11301506A95E2F7822B81BB089521B381E090E098
S113016002C0880F991F6A95E2F78095822381BBAC
S11301700895823419F118F4813439F008958334E0
S1130180B1F1843409F44CC00895413059F42BB3CF
S113019081E090E002C0880F991F6A95E2F7822BF4
S11301A08BBB08952BB381E090E002C0880F991FA8
S11301B06A95E2F7809582238BBB0895413059F408
S11301C028B381E090E002C0880F991F6A95E2F796
S11301D0822B88BB089528B381E090E002C0880F89
S11301E0991F6A95E2F78095822388BB0895413070
S11301F059F425B381E090E002C0880F991F6A95F5
S1130200E2F7822B85BB089525B381E090E002C01C
S1130210880F991F6A95E2F78095822385BB08951C
S1130220413059F422B381E090E002C0880F991F55
S11302306A95E2F7822B82BB089522B381E090E0B5
S113024002C0880F991F6A95E2F78095822382BBCA
S113025008958234E9F018F4813431F055C08334C0
S113026059F18434E9F150C049B381E090E09C0134
S1130270062E02C0220F331F0A94E2F7842F90E067
S11302808223932302C0959587956A95E2F7089592
S113029046B381E090E09C01062E02C0220F331F7A
S11302A00A94E2F7842F90E08223932302C0959569
S11302B087956A95E2F7089543B381E090E09C0145
S11302C0062E02C0220F331F0A94E2F7842F90E017
S11302D08223932302C0959587956A95E2F7089542
S11302E040B381E090E09C01062E02C0220F331F30
S11302F00A94E2F7842F90E08223932302C0959519
S113030087956A95E2F7089580E00895823419F19B
S113031018F4813439F008958334B1F1843409F444
S11303204CC00895413059F42BB381E090E002C0F1
S1130330880F991F6A95E2F7822B8BBB08952BB324
S113034081E090E002C0880F991F6A95E2F78095DA
S113035082238BBB0895413059F428B381E090E0A7
S113036002C0880F991F6A95E2F7822B88BB089513
S113037028B381E090E002C0880F991F6A95E2F7E4
S11303808095822388BB0895413059F425B381E0D8
S113039090E002C0880F991F6A95E2F7822B85BB13
S11303A0089525B381E090E002C0880F991F6A95F3
S11303B0E2F78095822385BB0895413059F422B336
S11303C081E090E002C0880F991F6A95E2F7822BC2
S11303D082BB089522B381E090E002C0880F991F88
S11303E06A95E2F78095822382BB08956295607FC7
S11303F0823481F018F4813431F00895833489F023
S11304008434B1F008958BB38F708BBB8BB3682B9E
S11304106BBB089588B38F7088BB88B3682B68BBA7
S1130420089585B38F7085BB85B3682B65BB08952C
S113043082B38F7082BB82B3682B62BB0895109223
S11304406D0009C041E083E40E94490080916D0081
S11304508F5F80936D0060916D00643098F384E049
S113046080936C0009C040E083E40E9449008091BD
S11304706C008F5F80936C0060916C00683098F31F
S113048041E064E083E40E94860141E065E083E4A6
S11304900E94860141E066E083E40E94860141E017
S11304A067E083E40E94860108950F931F93CF931E
S11304B0DF930FEFD0E010E036C041E060E083E46A
S11304C00E94B90041E061E083E40E94B90041E088
S11304D062E083E40E94B90041E063E083E40E94A7
S11304E0B90040E0612F83E40E94B900C0E016C067
S11304F063E06C0F83E40E942901D82F81110DC0A1
S1130500812F90E0FC01EE0FFF1FE80FF91FE05A66
S1130510FF4FEC0FF11D008103C0CF5FC33040F3E8
S1130520DD2319F01F5F143040F2802FDF91CF914B
S11305301F910F91089541E060E082E40E94B900A8
S113054083EF91E00197F1F700C0000040E060E024
S113055082E40E94B90083EF91E00197F1F700C0B3
S113056000000895CF93C82F682F62956F7081E4BF
S11305700E94F60140E061E082E40E94B9000E941A
S11305809B026C2F81E40E94F60140E061E082E46A
S11305900E94B9000E949B0289EF90E00197F1F755
S11305A000C00000CF91089583ED90E30197F1F727
S11305B000C0000084E080936E0009C041E081E443
S11305C00E94490080916E008F5F80936E0060915D
S11305D06E00683098F341E060E082E40E944900D4
S11305E041E062E082E40E94490041E061E082E48B
S11305F00E94490040E062E082E40E94B90082E087
S11306000E94B20283EC99E00197F1F700C0000068
S113061088E20E94B20289EF90E00197F1F700C0EE
S113062000008EE00E94B20289EF90E00197F1F79A
S113063000C0000081E00E94B20283EC99E00197BF
S1130640F1F700C0000086E00E94B20289EF90E05A
S11306500197F1F700C000000895CF93C82F682FC9
S113066062956F7081E40E94F60141E061E082E4EA
S11306700E94B9000E949B026C2F81E40E94F60143
S113068041E061E082E40E94B9000E949B0289EF8C
S113069090E00197F1F700C00000CF9108950E9407
S11306A0D4020E941F020E9455020E942D032FEFC4
S11306B083ED90E3215080409040E1F700C00000BA
S10906C0F2CFF894FFCF15
S10F06C63132333435363738392A3023CA
S9030000FC
