S00C00006D61696E2E7372656373
S11300000C942A000C943F000C943F000C943F0085
S11300100C943F000C943F000C943F000C943F0060
S11300200C943F000C943F000C943F000C943F0050
S11300300C943F000C943F000C943F000C943F0040
S11300400C943F000C943F000C943F000C943F0030
S11300500C943F0011241FBECFE5D8E0DEBFCDBF16
S113006010E0A0E6B0E0E8EAF4E002C005900D92EA
S1130070A836B107D9F70E943C020C9452020C94A2
S11300800000823419F118F4813439F0089583346E
S1130090B1F1843409F44CC00895413059F42AB3C1
S11300A081E090E002C0880F991F6A95E2F7822BE5
S11300B08ABB08952AB381E090E002C0880F991F9B
S11300C06A95E2F7809582238ABB0895413059F4FA
S11300D027B381E090E002C0880F991F6A95E2F788
S11300E0822B87BB089527B381E090E002C0880F7C
S11300F0991F6A95E2F78095822387BB0895413062
S113010059F424B381E090E002C0880F991F6A95E6
S1130110E2F7822B84BB089524B381E090E002C00F
S1130120880F991F6A95E2F78095822384BB08950E
S1130130413059F421B381E090E002C0880F991F47
S11301406A95E2F7822B81BB089521B381E090E0A8
S113015002C0880F991F6A95E2F78095822381BBBC
S11301600895823419F118F4813439F008958334F0
S1130170B1F1843409F44CC00895413059F42BB3DF
S113018081E090E002C0880F991F6A95E2F7822B04
S11301908BBB08952BB381E090E002C0880F991FB8
S11301A06A95E2F7809582238BBB0895413059F418
S11301B028B381E090E002C0880F991F6A95E2F7A6
S11301C0822B88BB089528B381E090E002C0880F99
S11301D0991F6A95E2F78095822388BB0895413080
S11301E059F425B381E090E002C0880F991F6A9505
S11301F0E2F7822B85BB089525B381E090E002C02D
S1130200880F991F6A95E2F78095822385BB08952C
S1130210413059F422B381E090E002C0880F991F65
S11302206A95E2F7822B82BB089522B381E090E0C5
S113023002C0880F991F6A95E2F78095822382BBDA
S113024008956295607F823481F018F4813431F02E
S11302500895833489F08434B1F008958BB38F709A
S11302608BBB8BB3682B6BBB089588B38F7088BB33
S113027088B3682B68BB089585B38F7085BB85B33D
S1130280682B65BB089582B38F7082BB82B3682BE1
S113029062BB089541E060E082E40E94B1008FE314
S11302A09FE10197F1F700C0000040E060E082E4C4
S11302B00E94B1008FE39FE10197F1F700C00000B5
S11302C00895CF93C82F682F62956F7081E40E94C0
S11302D0210140E061E082E40E94B1000E944A01F1
S11302E06C2F81E40E94210140E061E082E40E94DD
S11302F0B1000E944A018FE99FE00197F1F700C025
S11303000000CF9108952FEF83EC99E021508040B5
S11303109040E1F700C0000041E064E081E40E9405
S1130320410041E065E081E40E94410041E066E073
S113033081E40E94410041E067E081E40E944100C1
S113034041E060E082E40E94410041E062E082E436
S11303500E94410041E061E082E40E94410040E0EB
S113036062E082E40E94B10082E00E9461018FE3B6
S11303709CE90197F1F700C0000088E20E94610146
S11303808FE99FE00197F1F700C000008EE00E9422
S113039061018FE99FE00197F1F700C0000081E05F
S11303A00E9461018FE39CE90197F1F700C000000E
S11303B086E00E9461018FE99FE00197F1F700C098
S11303C000000895CF93C82F682F62956F7081E461
S11303D00E94210141E061E082E40E94B1000E9498
S11303E04A016C2F81E40E94210141E061E082E432
S11303F00E94B1000E944A018FE99FE00197F1F742
S113040000C00000CF910895CF93DF93EC0103C0A7
S11304100E94E201219688818111FACFDF91CF9168
S1130420089581E00E9461018FE39CE90197F1F74F
S113043000C0000008959FEF980F923070F461316E
S113044070F4662371F0813019F42FE7260F0AC087
S1130450823041F42FEB260F05C020E803C020E8CA
S113046001C020E8822F0E9461018FE99FE001977B
S1130470F1F700C0000008950E94830180E690E037
S11304800E94040268E081E00E941B022FEF81EECB
S113049094E0215080409040E1F700C000000E94A9
S10B04A01102ECCFF894FFCF28
S10B04A857454C434F4D45003C
S9030000FC
