S00C00006D61696E2E7372656373
S11300000C942A000C9447000C9447000C9447006D
S11300100C9447000C9447000C9447000C94470040
S11300200C9447000C9447000C9447000C94470030
S11300300C9447000C9447000C9447000C94470020
S11300400C9447000C9447000C9447000C94470010
S11300500C94470011241FBECFE5D8E0DEBFCDBF0E
S113006010E0A0E6B0E0E0E8FAE002C005900D92EE
S1130070AE39B107D9F720E0AEE9B0E001C01D9276
S1130080A03AB207E1F70E94B6030C943E050C9423
S1130090000017B887B1806487B987E886B90895E6
S11300A086B1806486B93699FECF64B175B180E0BB
S11300B090E008950E9403042AE038E240EA5BE3FA
S11300C00E94400408950E94DA020E9449020E949C
S11300D0D3030E94F0032FEF82E597E02150804084
S11300E09040E1F700C00000089561E081E00E94C3
S11300F07A0381E080939E0019C00E94700340E659
S113010050E060919E0081E00E949C032FEF81EEFD
S113011094E0215080409040E1F700C000000E942C
S1130120700380919E008F5F80939E0080919E005B
S1130130803118F380E180939E0019C00E947003FF
S113014040E650E060919E0081E00E949C032FEF06
S113015081EE94E0215080409040E1F700C000001F
S11301600E94700380919E00815080939E00809134
S11301709E008111E3CF2FEF84E39CE02150804067
S11301809040E1F700C000000E94700308952FEF33
S113019089EF90E0215080409040E1F700C00000DA
S11301A048E650E061E081E00E949C034FE650E0A5
S11301B06BE081E00E949C0344E750E061E082E050
S11301C00E949C030895CF930E949102C82F83320A
S11301D051F42FEF89EF90E0215080409040E1F7F7
S11301E000C000000BC00E9436032FEF89EF90E09F
S11301F0215080409040E1F700C000008C2FCF9147
S11302000895CF93DF9300D000D0CDB7DEB788B385
S1130210806188BB81E00E94E80380E00E94E803DB
S113022088B38F7E88BB8FE99FE00197F1F700C008
S113023000000E94EC0388B3806188BB82E00E94C6
S1130240E80380E00E94E80388B38F7E88BB8FE9CF
S11302509FE00197F1F700C000000E94EC034AE020
S113026050E0BE016F5F7F4F90E00E94FE046FE09C
S113027081E00E947A03CE0101960E945803C7CF01
S1130280823419F118F4813439F008958334B1F1CA
S1130290843409F44CC00895413059F42AB381E000
S11302A090E002C0880F991F6A95E2F7822B8ABBFF
S11302B008952AB381E090E002C0880F991F6A95DF
S11302C0E2F7809582238ABB0895413059F427B31D
S11302D081E090E002C0880F991F6A95E2F7822BB3
S11302E087BB089527B381E090E002C0880F991F6F
S11302F06A95E2F78095822387BB0895413059F4CB
S113030024B381E090E002C0880F991F6A95E2F758
S1130310822B84BB089524B381E090E002C0880F4F
S1130320991F6A95E2F78095822384BB0895413032
S113033059F421B381E090E002C0880F991F6A95B7
S1130340E2F7822B81BB089521B381E090E002C0E3
S1130350880F991F6A95E2F78095822381BB0895DF
S1130360823419F118F4813439F008958334B1F1E9
S1130370843409F44CC00895413059F42BB381E01E
S113038090E002C0880F991F6A95E2F7822B8BBB1D
S113039008952BB381E090E002C0880F991F6A95FD
S11303A0E2F7809582238BBB0895413059F428B33A
S11303B081E090E002C0880F991F6A95E2F7822BD2
S11303C088BB089528B381E090E002C0880F991F8C
S11303D06A95E2F78095822388BB0895413059F4E9
S11303E025B381E090E002C0880F991F6A95E2F777
S11303F0822B85BB089525B381E090E002C0880F6D
S1130400991F6A95E2F78095822385BB0895413050
S113041059F422B381E090E002C0880F991F6A95D5
S1130420E2F7822B82BB089522B381E090E002C000
S1130430880F991F6A95E2F78095822382BB0895FD
S11304406295607F823481F018F4813431F008952C
S1130450833489F08434B1F008958BB38F708BBBEF
S11304608BB3682B6BBB089588B38F7088BB88B33C
S1130470682B68BB089585B38F7085BB85B3682BE3
S113048065BB089582B38F7082BB82B3682B62BB55
S113049008958FE084BB80B78B7F80BF8FEF85BBCF
S11304A0089580E070E03AC095B39F6095BB95B322
S11304B0A72FB0E021E030E0072E02C0220F331F47
S11304C00A94E2F72095292325BB94E024C063B362
S11304D0E92FF0E021E030E0A901092E02C0440F29
S11304E0551F0A94E2F7262F30E024233523092EE2
S11304F002C0359527950A94E2F721110BC0349771
S11305009D01220F331F2A0F3B1F2E573F4FE20F2F
S1130510F31F80819F5F9730D0F27F5F743020F2A9
S1130520089506C083EC99E00197F1F700C000003C
S11305300E9451028111F6CF0E9451028823E1F3F7
S1130540089541E060E081E40E94B00183EF91E00E
S11305500197F1F700C0000040E060E081E40E94F0
S1130560B00183EF91E00197F1F700C00000089516
S1130570CF93C82F682F62956F7084E40E94200285
S113058040E061E081E40E94B0010E94A1026C2F6E
S113059084E40E94200240E061E081E40E94B00112
S11305A00E94A10289EF90E00197F1F700C00000DA
S11305B0CF91089587E893E10197F1F700C0000017
S11305C041E064E084E40E94400141E065E084E4A9
S11305D00E94400141E066E084E40E94400141E061
S11305E067E084E40E94400141E060E081E40E940D
S11305F0400141E062E081E40E94400141E061E0A9
S113060081E40E94400140E062E081E40E94B00184
S113061082E00E94B80283EC99E00197F1F700C0F0
S1130620000088E20E94B80289EF90E00197F1F798
S113063000C000008EE00E94B80289EF90E00197AC
S1130640F1F700C0000081E00E94B80283EC99E059
S11306500197F1F700C0000086E00E94B80289EF1C
S113066090E00197F1F700C000000895CF93C82FE0
S1130670682F62956F7084E40E94200241E061E07B
S113068081E40E94B0010E94A1026C2F84E40E94C4
S1130690200241E061E081E40E94B0010E94A102D5
S11306A089EF90E00197F1F700C00000CF91089521
S11306B0CF93DF93EC0110929F0007C00E94360392
S11306C080919F008F5F80939F0080919F00FE0127
S11306D0E80FF11D80818111F1CFDF91CF91089551
S11306E081E00E94B80283EC99E00197F1F700C021
S11306F0000008959FEF980F923070F4613170F408
S1130700662371F0813019F48FE7860F0CC08230B4
S113071049F48FEB860F07C080E805C080E803C06A
S113072080E801C080E00E94B80289EF90E0019760
S1130730F1F700C000000895CF93DF93EA010E940F
S11307407A0310929F0007C00E94360380919F0095
S11307508F5F80939F0080919F00FE01E80FF11D41
S113076080818111F1CFDF91CF9108950E946300C0
S11307700E9475000E94C7000E9449000E94500018
S11307800E945A000E94E3008332C1F74EE850E011
S113079061E082E00E949C0365E081E00E947A03AC
S11307A00E940101EBCF80EB87BB8DB180618DB9D5
S11307B08DB181608DB98DB182608DB98DB1846048
S11307C08DB98DB180648DB98DB180688DB908956E
S11307D08FB9779BFECF0895779BFECF8FB1089595
S11307E088B3806188BB80E80E94E80380E40E94AB
S11307F0E80388B38F7E88BB8BE792E90197F1F712
S113080000C000000895E89409C097FB3EF4909559
S11308108095709561957F4F8F4F9F4F9923A9F0D5
S1130820F92F96E9BB279395F69587957795679564
S1130830B795F111F8CFFAF4BB0F11F460FF1BC0A8
S11308406F5F7F4F8F4F9F4F16C0882311F096E93B
S113085011C0772321F09EE8872F762F05C06623E9
S113086071F096E8862F70E060E02AF09A95660FA2
S1130870771F881FDAF7880F9695879597F908955B
S11308800E9453040C94C4040E94B60438F00E94DD
S1130890BD0420F0952311F00C94AD040C94B30422
S11308A011240C94F8040E94D50470F3959FC1F3AD
S11308B0950F50E0551F629FF001729FBB27F00D0A
S11308C0B11D639FAA27F00DB11DAA1F649F66275F
S11308D0B00DA11D661F829F2227B00DA11D621FAE
S11308E0739FB00DA11D621F839FA00D611D221F68
S11308F0749F3327A00D611D231F849F600D211D4C
S1130900822F762F6A2F11249F5750409AF0F1F0CE
S113091088234AF0EE0FFF1FBB1F661F771F881F37
S113092091505040A9F79E3F510580F00C94AD04BE
S11309300C94F8045F3FE4F3983ED4F386957795DE
S11309406795B795F795E7959F5FC1F7FE2B880FDD
S1130950911D9695879597F9089597F99F6780E873
S113096070E060E008959FEF80EC089500240A94FD
S11309701616170618060906089500240A94121676
S11309801306140605060895092E0394000C11F4A9
S1130990882352F0BB0F40F4BF2B11F460FF04C056
S11309A06F5F7F4F8F4F9F4F089557FD9058440FAF
S11309B0551F59F05F3F71F04795880F97FB991FBA
S11309C061F09F3F79F08795089512161306140677
S11309D0551FF2CF4695F1DF08C016161706180604
S11309E0991FF1CF86957105610508940895E894DF
S11309F0BB2766277727CB0197F908954532510520
S1130A0020F4423010F00C940905FB011082CB0154
S1130A100895BB274A3031F4992322F4BDE290951E
S1130A2081959F4F0C941505BB27FB015527AA27D9
S1130A30880F991FAA1FA41710F0A41B8395505167
S1130A40B9F7A05DAA3308F0A95DA193009779F7DF
S1130A50B111B1931192CB010C942E05DC01FC0170
S1130A60672F71917723E1F7329704C07C916D93DE
S1130A7070836291AE17BF07C8F30895F894FFCF4F
S1130A8057454C434F4D45005345543A3235004386
S1130A9052543A0053544154453A5354414E4442FB
S1130AA059003132333435363738392A30235354E8
S1110AB04154453A4F5045524154494F4E006F
S9030000FC
