S00C00006D61696E2E7372656373
S11300000C942A000C9447000C9447000C9447006D
S11300100C94AC020C9447000C9447000C944700D9
S11300200C9447000C9447000C9447000C94470030
S11300300C9447000C9447000C9447000C94470020
S11300400C9447000C9447000C9447000C94470010
S11300500C94470011241FBECFE5D8E0DEBFCDBF0E
S113006010E0A0E6B0E0EAE9F0E102C005900D92EC
S1130070A83BB107D9F720E0A8EBB0E001C01D927E
S1130080AC3CB207E1F70E94CD050C944B080C94EC
S113009000000E949D050E94BA052FEF82E597E0BB
S11300A0215080409040E1F700C000000E945404B9
S11300B00E94D00208950E94920381E08093CA00B6
S11300C01BC00E9428046091CA0081E00E9432048F
S11300D080E690E00E9410042FEF84E694E0215023
S11300E080409040E1F700C000000E942804809105
S11300F0CA008F5F8093CA008091CA00803108F3E0
S113010080E18093CA001BC00E9428046091CA0049
S113011081E00E94320480E690E00E9410042FEFF8
S113012084E694E0215080409040E1F700C0000054
S11301300E9428048091CA0081508093CA00809153
S1130140CA008111E1CF2FEF82E597E02150804072
S11301509040E1F700C000000E94280408950E9426
S113016092032FEF89EF90E0215080409040E1F717
S113017000C0000061E081E00E94320488E690E063
S11301800E9410046BE081E00E9432048FE690E04C
S11301900E94100461E082E00E94320484E790E04F
S11301A00E9410040895CF930E94FD026091B8004C
S11301B06B5F81E00E9432040E944903C82F8A3297
S11301C0D9F08332C9F00E94EE032FEF81EE94E060
S11301D0215080409040E1F700C000008091B800B9
S11301E0E82FF0E0EC53FF4FC0838F5F8170809362
S11301F0B8000E94D30010C084EC90E00E94F00785
S11302009093C9008093C80061E082E00E943204A8
S113021082E890E00E941004CF91089588B3806131
S113022088BB82E00E94B20580E00E94B20588B3D8
S11302308F7E88BB8FE99FE00197F1F700C0000033
S11302400E94B6050895CF93DF9300D0CDB7DEB7F3
S11302500E940E014AE0BE016F5F7F4F90E00E9452
S11302600E086FE081E00E943204CE0101960E94E4
S11302701004CE0101960E94F0079093C70080936A
S1130280C6000F900F90DF91CF9108958091C60022
S11302909091C70008958091C8009091C900089575
S11302A0CF93DF930E944B01EC010E944601BE01F3
S11302B0681B790B80E090E00E94E60620E030E0C5
S11302C048EC52E40E94450620E030E040E251E46C
S11302D00E947407DF91CF9108950E945B040E94ED
S11302E065040895CF92DF92EF92FF920E9450012D
S11302F06B017C010E946D01A70196010E94DB0243
S1130300FF90EF90DF90CF90089581E08093BC0040
S1130310089581E08093BB00089581E08093BA0042
S1130320089581E08093B90008951092BC00109262
S1130330BE001092BD001092BF0008951092BB0041
S113034008951092BA0008951092B900089581E0BA
S11303508093C2000895CF93DF938091C3008130CE
S1130360A9F038F0823009F46AC0833009F474C00B
S11303707FC00E94A1010E949E010E944903833212
S113038009F076C081E08093C30072C061E082E02E
S11303900E94320482E890E00E9410040E948901C5
S11303A00E948D010E944601EC010E944B018C17B2
S11303B09D0770F49E01281B390B2630310540F44B
S11303C082E08093C3000E9495010E94A40129C089
S11303D0C817D90770F49C012C1B3D0B263031053E
S11303E040F482E08093C3000E9495010E94A4011E
S11303F018C08C179D0750F49E01281B390B2B3015
S1130400310520F083E08093C3000BC0C817D907DF
S113041040F48C1B9D0B069720F00E9485010E94DE
S113042091010E944903833211F41092C300809118
S1130430C2008823E9F083E08093C30019C061E01F
S113044082E00E94320482E990E00E9410040E943B
S113045089010E94A1010CC061E082E00E94320483
S11304608FE990E00E9410040E949E010E94A10165
S1130470DF91CF9108954091C0005091C1004F5F2A
S11304805F4F5093C1004093C0009A013695279561
S1130490ABE7B4E10E94E1079695879562E3689F14
S11304A09001699F300D11244217530711F00E94E7
S11304B0AB014091C0005091C1009A013695279537
S11304C03695279536952795ABE7B4E10E94E10769
S11304D09695879568EC689F9001699F300D11246B
S11304E04217530751F08091BB0081110E942301F0
S11304F08091BA0081110E9472019091BF008BEA31
S1130500989F812D11248695282F220F820F9817EA
S113051029F08091B90081110E94A7018091BC004B
S1130520882349F08091BD009091BE00019690937C
S1130530BE008093BD008091BD009091BE008036C6
S11305409A4E48F01092BE001092BD008091BF00F8
S11305508F5F8093BF0008951F920F920FB60F9282
S113056011242F933F934F935F936F937F938F93B4
S11305709F93AF93BF93EF93FF930E943B02FF912E
S1130580EF91BF91AF919F918F917F916F915F9107
S11305904F913F912F910F900FBE0F901F90189580
S11305A083B7896683BF87B3886087BB88EB9BE08A
S11305B09BBD8ABD0895CF92DF92EF92FF926901AD
S11305C07A019B01AC010E94D90520E030E040E2B1
S11305D051E40E944506A70196010E94740720E099
S11305E030E040E251E40E9445060E94B7066CBF29
S11305F0FF90EF90DF90CF9008956FE083E40E9426
S11306004E0580B78B7F80BF6FEF83E40E94610546
S1130610089580E070E03AC095B39F6095BB95B3B0
S1130620A72FB0E021E030E0072E02C0220F331FD5
S11306300A94E2F72095292325BB94E024C063B3F0
S1130640E92FF0E021E030E0A901092E02C0440FB7
S1130650551F0A94E2F7262F30E024233523092E70
S113066002C0359527950A94E2F721110BC03497FF
S11306709D01220F331F2A0F3B1F25553F4FE20FC9
S1130680F31F80819F5F9730D0F27F5F743020F238
S1130690089506C083EC99E00197F1F700C00000CB
S11306A00E9409038111F6CF0E9409038823E1F314
S11306B0089541E063E081E40E94DE0483EF91E069
S11306C00197F1F700C0000040E063E081E40E947C
S11306D0DE0483EF91E00197F1F700C00000089574
S11306E0CF93C82F682F62956F7084E40E947405BD
S11306F040E061E081E40E94DE040E9459036C2F13
S113070084E40E94740540E061E081E40E94DE0418
S11307100E94590389EF90E00197F1F700C00000AF
S1130720CF91089587E893E10197F1F700C00000A5
S113073041E064E084E40E946E0441E065E084E406
S11307400E946E0441E066E084E40E946E0441E08D
S113075067E084E40E946E0441E063E081E40E9467
S11307606E0441E062E081E40E946E0441E061E0D5
S113077081E40E946E0440E062E081E40E94DE04B1
S113078082E00E94700383EC99E00197F1F700C0C6
S1130790000088E20E94700389EF90E00197F1F76E
S11307A000C000008CE00E94700389EF90E0019784
S11307B0F1F700C0000081E00E94700383EC99E02F
S11307C00197F1F700C0000086E00E94700389EFF2
S11307D090E00197F1F700C000000895CF93C82F6F
S11307E0682F62956F7084E40E94740541E061E0B3
S11307F081E40E94DE040E9459036C2F84E40E9469
S1130800740541E061E081E40E94DE040E94590322
S113081089EF90E00197F1F700C00000CF910895AF
S1130820CF93DF93EC011092CB0007C00E94EE033C
S11308308091CB008F5F8093CB008091CB00FE0131
S1130840E80FF11D80818111F1CFDF91CF910895DF
S113085081E00E94700383EC99E00197F1F700C0F6
S1130860000008959FEF980F923070F4613170F496
S1130870662371F0813019F48FE7860F0CC0823043
S113088049F48FEB860F07C080E805C080E803C0F9
S113089080E801C080E00E94700389EF90E0019736
S11308A0F1F700C00000089517B887B1806487B9D4
S11308B087E886B9089586B1806486B93699FECFF3
S11308C064B175B180E090E008950E94E6062AE0E4
S11308D038E240EA5BE30E9474070895823419F118
S11308E018F4813439F008958334B1F1843409F46F
S11308F04CC00895413059F42AB381E090E002C01D
S1130900880F991F6A95E2F7822B8ABB08952AB350
S113091081E090E002C0880F991F6A95E2F7809504
S113092082238ABB0895413059F427B381E090E0D3
S113093002C0880F991F6A95E2F7822B87BB08953E
S113094027B381E090E002C0880F991F6A95E2F70F
S11309508095822387BB0895413059F424B381E004
S113096090E002C0880F991F6A95E2F7822B84BB3E
S1130970089524B381E090E002C0880F991F6A951E
S1130980E2F78095822384BB0895413059F421B362
S113099081E090E002C0880F991F6A95E2F7822BEC
S11309A081BB089521B381E090E002C0880F991FB4
S11309B06A95E2F78095822381BB0895823419F108
S11309C018F4813439F008958334B1F1843409F48E
S11309D04CC00895413059F42BB381E090E002C03B
S11309E0880F991F6A95E2F7822B8BBB08952BB36E
S11309F081E090E002C0880F991F6A95E2F7809524
S1130A0082238BBB0895413059F428B381E090E0F0
S1130A1002C0880F991F6A95E2F7822B88BB08955C
S1130A2028B381E090E002C0880F991F6A95E2F72D
S1130A308095822388BB0895413059F425B381E021
S1130A4090E002C0880F991F6A95E2F7822B85BB5C
S1130A50089525B381E090E002C0880F991F6A953C
S1130A60E2F78095822385BB0895413059F422B37F
S1130A7081E090E002C0880F991F6A95E2F7822B0B
S1130A8082BB089522B381E090E002C0880F991FD1
S1130A906A95E2F78095822382BB0895823459F0E7
S1130AA018F4813431F00895833439F0843439F002
S1130AB008956ABB089567BB089564BB089561BB3C
S1130AC00895823459F018F4813431F00895833450
S1130AD039F0843439F008956BBB089568BB0895E8
S1130AE065BB089562BB08956295607F823481F08E
S1130AF018F4813431F00895833489F08434B1F0EA
S1130B0008958BB38F708BBB8BB3682B6BBB08952D
S1130B1088B38F7088BB88B3682B68BB089585B38E
S1130B208F7085BB85B3682B65BB089582B38F70C6
S1130B3082BB82B3682B62BB089580EB87BB8DB107
S1130B4080618DB98DB181608DB98DB182608DB9AF
S1130B508DB184608DB98DB180648DB98DB180689B
S1130B608DB908958FB9779BFECF0895779BFECFFB
S1130B708FB1089588B3806188BB80E80E94B20574
S1130B8080E40E94B20588B38F7E88BB8BE792E92C
S1130B900197F1F700C0000008950E945B000E94D5
S1130BA0AF000E94D3000E9449000E942301FDCFA0
S1130BB05058BB27AA270E94F0050C943A070E94BC
S1130BC02C0738F00E94330720F039F49F3F19F4C2
S1130BD026F40C9429070EF4E095E7FB0C94230704
S1130BE0E92F0E944B0758F3BA176207730784076B
S1130BF0950720F079F4A6F50C946D070EF4E095B2
S1130C000B2EBA2FA02D0B01B90190010C01CA01C2
S1130C10A0011124FF27591B99F0593F50F4503E6D
S1130C2068F11A16F040A22F232F342F4427585F5F
S1130C30F3CF469537952795A795F0405395C9F777
S1130C407EF41F16BA0B620B730B840BBAF091502F
S1130C50A1F0FF0FBB1F661F771F881FC2F70EC0CE
S1130C60BA0F621F731F841F48F4879577956795A1
S1130C70B795F7959E3F08F0B0CF9395880F08F08D
S1130C809927EE0F9795879508950E9459060C941D
S1130C903A070E94330758F00E942C0740F029F4C9
S1130CA05F3F29F00C94230751110C946E070C94A8
S1130CB029070E944B0768F39923B1F3552391F355
S1130CC0951B550BBB27AA2762177307840738F0B7
S1130CD09F5F5F4F220F331F441FAA1FA9F335D014
S1130CE00E2E3AF0E0E832D091505040E695001CC8
S1130CF0CAF72BD0FE2F29D0660F771F881FBB1F82
S1130D00261737074807AB07B0E809F0BB0B802D5F
S1130D10BF01FF2793585F4F3AF09E3F510578F08B
S1130D200C9423070C946E075F3FE4F3983ED4F3CE
S1130D30869577956795B795F7959F5FC9F7880F5F
S1130D40911D9695879597F90895E1E0660F771FB1
S1130D50881FBB1F621773078407BA0720F0621B42
S1130D60730B840BBA0BEE1F88F7E09508950E946D
S1130D70530788F09F5798F0B92F9927B751B0F0CF
S1130D80E1F0660F771F881F991F1AF0BA95C9F70B
S1130D9014C0B13091F00E946D07B1E008950C9435
S1130DA06D07672F782F8827B85F39F0B93FCCF3E8
S1130DB0869577956795B395D9F73EF49095809588
S1130DC0709561957F4F8F4F9F4F0895E89409C0A8
S1130DD097FB3EF490958095709561957F4F8F4F6A
S1130DE09F4F9923A9F0F92F96E9BB279395F69580
S1130DF0879577956795B795F111F8CFFAF4BB0FFE
S1130E0011F460FF1BC06F5F7F4F8F4F9F4F16C061
S1130E10882311F096E911C0772321F09EE8872FEB
S1130E20762F05C0662371F096E8862F70E060E0A7
S1130E302AF09A95660F771F881FDAF7880F969520
S1130E40879597F9089597F99F6780E870E060E0C7
S1130E5008959FEF80EC089500240A94161617064F
S1130E6018060906089500240A9412161306140697
S1130E7005060895092E0394000C11F4882352F0FA
S1130E80BB0F40F4BF2B11F460FF04C06F5F7F4FB2
S1130E908F4F9F4F089557FD9058440F551F59F099
S1130EA05F3F71F04795880F97FB991F61F09F3F53
S1130EB079F087950895121613061406551FF2CF7C
S1130EC04695F1DF08C0161617061806991FF1CFCC
S1130ED086957105610508940895E894BB276627F3
S1130EE07727CB0197F908950E9487070C943A0756
S1130EF00E942C0738F00E94330720F0952311F04C
S1130F000C9423070C94290711240C946E070E9457
S1130F104B0770F3959FC1F3950F50E0551F629FE7
S1130F20F001729FBB27F00DB11D639FAA27F00D3E
S1130F30B11DAA1F649F6627B00DA11D661F829F65
S1130F402227B00DA11D621F739FB00DA11D621F4A
S1130F50839FA00D611D221F749F3327A00D611D67
S1130F60231F849F600D211D822F762F6A2F112449
S1130F709F5750409AF0F1F088234AF0EE0FFF1F7C
S1130F80BB1F661F771F881F91505040A9F79E3FD3
S1130F90510580F00C9423070C946E075F3FE4F333
S1130FA0983ED4F3869577956795B795F795E79529
S1130FB09F5FC1F7FE2B880F911D9695879597F932
S1130FC00895A29FB001B39FC001A39F700D811D1E
S1130FD01124911DB29F700D811D1124911D08953E
S1130FE0FC0188279927E89421912032E9F32930DC
S1130FF010F02E30C8F32B3241F02D3239F46894BE
S113100004C00E941908820F911D219120532A3097
S1131010C0F31EF4909581959F4F0895BB274A30E5
S113102031F4992322F4BDE2909581959F4F0C945D
S113103022087AE0979F902D879F802D910D11248F
S11310400895BB27FB015527AA27880F991FAA1FBC
S1131050A41710F0A41B83955051B9F7A05DAA33CF
S113106008F0A95DA193009779F7B111B19311929A
S1131070CB010C943B08DC01FC01672F71917723B1
S1131080E1F7329704C07C916D9370836291AE173F
S10D1090BF07C8F30895F894FFCFDA
S113109A57454C434F4D45005345543A3235004366
S11310AA52543A0053544154453A5354414E4442DB
S11310BA590053544154453A4F5045524154494FAB
S11310CA4E0053544154453A4E4F524D414C0053ED
S11310DA544154453A4552524F5200313233343511
S10B10EA363738392A3023009F
S9030000FC
