S00C00006D61696E2E7372656373
S11300000C942A000C9447000C9447000C9447006D
S11300100C9447000C9447000C9447000C94470040
S11300200C9447000C9447000C9447000C94470030
S11300300C9447000C9447000C9447000C94470020
S11300400C9447000C9447000C9447000C94470010
S11300500C94470011241FBECFE5D8E0DEBFCDBF0E
S113006010E0A0E6B0E0ECE8F7E002C005900D92E5
S1130070AE39B107D9F720E0AEE9B0E001C01D9276
S1130080A03AB207E1F70E947D030C94C4030C94D8
S113009000000E94B9020E9428020E9494030E9458
S11300A0B1032FEF82E597E0215080409040E1F7C3
S11300B000C00000089561E081E00E94410381E0F6
S11300C080939E0019C00E94370340E650E060917F
S11300D09E0081E00E9463032FEF81EE94E02150A3
S11300E080409040E1F700C000000E9437038091F7
S11300F09E008F5F80939E0080919E00803118F354
S113010080E180939E0019C00E94370340E650E0CE
S113011060919E0081E00E9463032FEF81EE94E0E2
S1130120215080409040E1F700C000000E94370356
S113013080919E00815080939E0080919E00811149
S1130140E3CF2FEF84E39CE0215080409040E1F71F
S113015000C000000E94370308952FEF89EF90E05C
S1130160215080409040E1F700C0000048E650E094
S113017061E081E00E9463034FE650E06BE081E0C0
S11301800E94630344E750E061E082E00E9463035D
S11301900895CF930E947002C82F833251F42FEF39
S11301A089EF90E0215080409040E1F700C00000CA
S11301B00BC00E9415032FEF89EF90E0215080407F
S11301C09040E1F700C000008C2FCF910895CF93A9
S11301D088B3806188BB82E00E94A90380E00E940A
S11301E0A90388B38F7E88BB8FE99FE00197F1F75D
S11301F000C000000E94AD03C82FCC0F88B38061FB
S113020088BB81E00E94A90380E00E94A90388B30F
S11302108F7E88BB8FE99FE00197F1F700C0000053
S11302200E94AD03881F8827881FC82B6FE081E0D8
S11302300E9441038C2F0E941503CF9108958234AC
S113024019F118F4813439F008958334B1F1843408
S113025009F44CC00895413059F42AB381E090E088
S113026002C0880F991F6A95E2F7822B8ABB089512
S11302702AB381E090E002C0880F991F6A95E2F7E3
S1130280809582238ABB0895413059F427B381E0D5
S113029090E002C0880F991F6A95E2F7822B87BB12
S11302A0089527B381E090E002C0880F991F6A95F2
S11302B0E2F78095822387BB0895413059F424B333
S11302C081E090E002C0880F991F6A95E2F7822BC3
S11302D084BB089524B381E090E002C0880F991F85
S11302E06A95E2F78095822384BB0895413059F4DE
S11302F021B381E090E002C0880F991F6A95E2F76C
S1130300822B81BB089521B381E090E002C0880F65
S1130310991F6A95E2F78095822381BB0895823400
S113032019F118F4813439F008958334B1F1843427
S113033009F44CC00895413059F42BB381E090E0A6
S113034002C0880F991F6A95E2F7822B8BBB089530
S11303502BB381E090E002C0880F991F6A95E2F701
S1130360809582238BBB0895413059F428B381E0F2
S113037090E002C0880F991F6A95E2F7822B88BB30
S1130380089528B381E090E002C0880F991F6A9510
S1130390E2F78095822388BB0895413059F425B350
S11303A081E090E002C0880F991F6A95E2F7822BE2
S11303B085BB089525B381E090E002C0880F991FA2
S11303C06A95E2F78095822385BB0895413059F4FC
S11303D022B381E090E002C0880F991F6A95E2F78A
S11303E0822B82BB089522B381E090E002C0880F83
S11303F0991F6A95E2F78095822382BB08956295DE
S1130400607F823481F018F4813431F008958334AC
S113041089F08434B1F008958BB38F708BBB8BB3A8
S1130420682B6BBB089588B38F7088BB88B3682B27
S113043068BB089585B38F7085BB85B3682B65BB96
S1130440089582B38F7082BB82B3682B62BB089518
S11304508FE084BB80B78B7F80BF8FEF85BB08950F
S113046080E070E03AC095B39F6095BB95B3A72F29
S1130470B0E021E030E0072E02C0220F331F0A94BF
S1130480E2F72095292325BB94E024C063B3E92F28
S1130490F0E021E030E0A901092E02C0440F551F0D
S11304A00A94E2F7262F30E024233523092E02C0D4
S11304B0359527950A94E2F721110BC034979D01D5
S11304C0220F331F2A0F3B1F2E573F4FE20FF31FFC
S11304D080819F5F9730D0F27F5F743020F208955F
S11304E006C083EC99E00197F1F700C000000E9478
S11304F030028111F6CF0E9430028823E1F308957F
S113050041E060E081E40E948F0183EF91E0019774
S1130510F1F700C0000040E060E081E40E948F0138
S113052083EF91E00197F1F700C000000895CF93A5
S1130530C82F682F62956F7084E40E94FF0140E029
S113054061E081E40E948F010E9480026C2F84E4A8
S11305500E94FF0140E061E081E40E948F010E945B
S1130560800289EF90E00197F1F700C00000CF917D
S1130570089587E893E10197F1F700C0000041E096
S113058064E084E40E941F0141E065E084E40E9489
S11305901F0141E066E084E40E941F0141E067E03E
S11305A084E40E941F0141E060E081E40E941F0195
S11305B041E062E081E40E941F0141E061E081E4E6
S11305C00E941F0140E062E081E40E948F0182E00A
S11305D00E94970283EC99E00197F1F700C00000B4
S11305E088E20E94970289EF90E00197F1F700C03A
S11305F000008EE00E94970289EF90E00197F1F7E6
S113060000C0000081E00E94970283EC99E001970A
S1130610F1F700C0000086E00E94970289EF90E0A5
S11306200197F1F700C000000895CF93C82F682FF9
S113063062956F7084E40E94FF0141E061E081E40F
S11306400E948F010E9480026C2F84E40E94FF01AB
S113065041E061E081E40E948F010E94800289EF01
S113066090E00197F1F700C00000CF91089581E078
S11306700E94970283EC99E00197F1F700C0000013
S113068008959FEF980F923070F4613170F46623EF
S113069071F0813019F48FE7860F0CC0823049F471
S11306A08FEB860F07C080E805C080E803C080E8B0
S11306B001C080E00E94970289EF90E00197F1F772
S11306C000C000000895CF93DF93EA010E94410324
S11306D010929F0007C00E94150380919F008F5FB6
S11306E080939F0080919F00FE01E80FF11D80819F
S11306F08111F1CFDF91CF9108950E9449000E94AA
S11307005B000E94AD000E94C9008332E1F74EE80D
S113071050E061E082E00E94630365E081E00E94B2
S113072041030E94E700EFCF80EB87BB8DB180616E
S11307308DB98DB181608DB98DB182608DB98DB166
S113074084608DB98DB180648DB98DB180688DB9A7
S113075008958FB9779BFECF0895779BFECF8FB115
S1130760089588B3806188BB80E80E94A90380E46F
S11307700E94A90388B38F7E88BB8BE792E9019717
S10F0780F1F700C000000895F894FFCFCA
S113078C57454C434F4D45005345543A323500437D
S113079C52543A0053544154453A5354414E4442F2
S11307AC59003132333435363738392A30235354DF
S11107BC4154453A4F5045524154494F4E0066
S9030000FC
