S00C00006D61696E2E7372656373
S11300000C942A000C9447000C9447000C9447006D
S11300100C9447000C9447000C9447000C94470040
S11300200C9447000C9447000C9447000C94470030
S11300300C9447000C9447000C9447000C94470020
S11300400C9447000C9447000C9447000C94470010
S11300500C94470011241FBECFE5D8E0DEBFCDBF0E
S113006010E0A0E6B0E0E6E2F9E002C005900D92EF
S1130070AE38B107D9F720E0AEE8B0E001C01D9278
S1130080A039B207E1F70E9454040C9491040C9433
S1130090000061E081E00E94270481E080938E00EB
S11300A019C00E941D0440E650E060918E0081E07A
S11300B00E9449042FEF81EE94E02150804090404B
S11300C0E1F700C000000E941D0480918E008F5F44
S11300D080938E0080918E00803118F380E18093AC
S11300E08E0019C00E941D0440E650E060918E000D
S11300F081E00E9449042FEF81EE94E0215080407A
S11301009040E1F700C000000E941D0480918E0021
S1130110815080938E0080918E008111E3CF2FEF68
S113012084E39CE0215080409040E1F700C000004F
S11301300E941D0408950E941D042FEF81EE94E097
S1130140215080409040E1F700C0000048E650E0B4
S113015061E081E00E9449044FE650E06BE081E0F9
S11301600E94490444E750E061E082E00E944904AF
S113017065E081E00E94270408950E9417030E940D
S1130180EE032FEF83ED90E3215080409040E1F7A0
S113019000C000000E941D042FEF83ED90E3215066
S11301A080409040E1F700C0000008950E9461047F
S11301B00E947E042FEF82E597E02150804090401A
S11301C0E1F700C0000088B3806188BB82E00E9430
S11301D0760480E00E94760488B38F7E88BB8FE922
S11301E09FE00197F1F700C000000E947A0488B3F1
S11301F0806188BB81E00E94760480E00E947604DE
S113020088B38F7E88BB8FE99FE00197F1F700C028
S113021000000E947A040E94EE03D5CF823419F1C3
S113022018F4813439F008958334B1F1843409F435
S11302304CC00895413059F42AB381E090E002C0E3
S1130240880F991F6A95E2F7822B8ABB08952AB317
S113025081E090E002C0880F991F6A95E2F78095CB
S113026082238ABB0895413059F427B381E090E09A
S113027002C0880F991F6A95E2F7822B87BB089505
S113028027B381E090E002C0880F991F6A95E2F7D6
S11302908095822387BB0895413059F424B381E0CB
S11302A090E002C0880F991F6A95E2F7822B84BB05
S11302B0089524B381E090E002C0880F991F6A95E5
S11302C0E2F78095822384BB0895413059F421B329
S11302D081E090E002C0880F991F6A95E2F7822BB3
S11302E081BB089521B381E090E002C0880F991F7B
S11302F06A95E2F78095822381BB0895823419F1CF
S113030018F4813439F008958334B1F1843409F454
S11303104CC00895413059F42BB381E090E002C001
S1130320880F991F6A95E2F7822B8BBB08952BB334
S113033081E090E002C0880F991F6A95E2F78095EA
S113034082238BBB0895413059F428B381E090E0B7
S113035002C0880F991F6A95E2F7822B88BB089523
S113036028B381E090E002C0880F991F6A95E2F7F4
S11303708095822388BB0895413059F425B381E0E8
S113038090E002C0880F991F6A95E2F7822B85BB23
S1130390089525B381E090E002C0880F991F6A9503
S11303A0E2F78095822385BB0895413059F422B346
S11303B081E090E002C0880F991F6A95E2F7822BD2
S11303C082BB089522B381E090E002C0880F991F98
S11303D06A95E2F78095822382BB08958234E9F01E
S11303E018F4813431F055C0833459F18434E9F17F
S11303F050C049B381E090E09C01062E02C0220F58
S1130400331F0A94E2F7842F90E08223932302C0DF
S1130410959587956A95E2F7089546B381E090E053
S11304209C01062E02C0220F331F0A94E2F7842F88
S113043090E08223932302C0959587956A95E2F70D
S1130440089543B381E090E09C01062E02C0220F80
S1130450331F0A94E2F7842F90E08223932302C08F
S1130460959587956A95E2F7089540B381E090E009
S11304709C01062E02C0220F331F0A94E2F7842F38
S113048090E08223932302C0959587956A95E2F7BD
S1130490089580E00895823419F118F4813439F014
S11304A008958334B1F1843409F44CC00895413083
S11304B059F42BB381E090E002C0880F991F6A952C
S11304C0E2F7822B8BBB08952BB381E090E002C04E
S11304D0880F991F6A95E2F7809582238BBB089554
S11304E0413059F428B381E090E002C0880F991F8D
S11304F06A95E2F7822B88BB089528B381E090E0E7
S113050002C0880F991F6A95E2F78095822388BB01
S11305100895413059F425B381E090E002C0880F7A
S1130520991F6A95E2F7822B85BB089525B381E074
S113053090E002C0880F991F6A95E2F780958223A4
S113054085BB0895413059F422B381E090E002C0A4
S1130550880F991F6A95E2F7822B82BB089522B314
S113056081E090E002C0880F991F6A95E2F78095B8
S1130570822382BB08956295607F823481F018F4EF
S1130580813431F00895833489F08434B1F00895CE
S11305908BB38F708BBB8BB3682B6BBB089588B305
S11305A08F7088BB88B3682B68BB089585B38F7040
S11305B085BB85B3682B65BB089582B38F7082BBFE
S11305C082B3682B62BB089541E060E083E40E943B
S11305D00E0141E061E083E40E940E0141E062E02B
S11305E083E40E940E0141E063E083E40E940E0173
S11305F040E064E083E40E940E0140E065E083E4AF
S11306000E940E0140E066E083E40E940E0141E096
S113061064E083E40E944B0241E065E083E40E94CD
S11306204B0241E066E083E40E944B0208950F937D
S11306301F93CF93DF930FEF10E036C041E060E0EB
S113064083E40E947E0141E061E083E40E947E0134
S113065041E062E083E40E947E0141E063E083E4E0
S11306600E947E0140E0612F83E40E947E01C0E08D
S113067016C064E06C0F83E40E94EE01D82F811150
S11306800DC0812F90E0FC01EE0FFF1FE80FF91F52
S1130690EE57FF4FEC0FF11D008103C0CF5FC33055
S11306A040F3DD2319F01F5F143040F2802FDF91F7
S11306B0CF911F910F91089541E060E081E40E9481
S11306C07E0183EF91E00197F1F700C0000040E064
S11306D060E081E40E947E0183EF91E00197F1F7ED
S11306E000C000000895CF93C82F682F62956F70E3
S11306F081E40E94BB0240E061E081E40E947E014B
S11307000E945C036C2F81E40E94BB0240E061E024
S113071081E40E947E010E945C0389EF90E00197CE
S1130720F1F700C00000CF91089587E893E10197A5
S1130730F1F700C0000084E080938F0009C041E01D
S113074081E40E940E0180918F008F5F80938F005F
S113075060918F00683098F341E060E081E40E948A
S11307600E0141E062E081E40E940E0141E061E09B
S113077081E40E940E0140E062E081E40E947E0177
S113078082E00E94730383EC99E00197F1F700C0C3
S1130790000088E20E94730389EF90E00197F1F76B
S11307A000C000008EE00E94730389EF90E001977F
S11307B0F1F700C0000081E00E94730383EC99E02C
S11307C00197F1F700C0000086E00E94730389EFEF
S11307D090E00197F1F700C000000895CF93C82F6F
S11307E0682F62956F7081E40E94BB0241E061E072
S11307F081E40E947E010E945C036C2F81E40E94CC
S1130800BB0241E061E081E40E947E010E945C033E
S113081089EF90E00197F1F700C00000CF910895AF
S1130820CF93DF93EC0103C00E94EE0321968881ED
S11308308111FACFDF91CF91089581E00E94730373
S113084083EC99E00197F1F700C0000008959FEF51
S1130850980F923070F4613170F4662371F0813036
S113086019F48FE7860F0CC0823049F48FEB860FA2
S113087007C080E805C080E803C080E801C080E0CC
S11308800E94730389EF90E00197F1F700C0000024
S11308900895CF93DF93EA010E942704CE010E94BA
S11308A01004DF91CF9108950E9495030E94E40201
S11308B00E9449000E949B000E94BD000E94D60035
S11308C0F9CF80EB87BB8DB180618DB98DB181602B
S11308D08DB98DB182608DB98DB184608DB98DB1C2
S11308E080648DB98DB180688DB908958FB9779B77
S11308F0FECF0895779BFECF8FB1089588B38061B2
S113090088BB80E80E94760484E00E94760488B361
S11309108F7E88BB8BE792E90197F1F700C0000056
S10909200895F894FFCFD6
S113092657454C434F4D45005345543A32350043E1
S113093652543A0053544154453A5354414E444256
S111094659003132333435363738392A3023EC
S9030000FC
